:020000040800F2
:10000000D8110020E1000008C9280008BD1B000825
:1000100000000000000000000000000000000000E0
:100020000000000000000000000000005D32000839
:100030000000000000000000BD2A0008893300080D
:10004000F3000008F3000008F3000008F3000008C4
:10005000F3000008F3000008F3000008711700081F
:1000600000000000E10E0008F3000008F3000008A3
:10007000F3000008F3000008F3000008000000008F
:10008000014C0008F300000800000000F300000825
:10009000F3000008F3000008F3000008F300000874
:1000A000F3000008F3000008F3000008F94C000812
:1000B000F300000800000000000000000000000045
:1000C000F300000800000000F30000080348854624
:1000D00000F0CCFD004800471D6E0008D81100203C
:1000E0000448804704480047FEE7FEE7FEE7FEE7D6
:1000F000FEE7FEE78D330008CD000008F8B50246A4
:100100004A40D40F42004B0052085B089A4202D288
:100110000246084611464A0023D0C30D4A00DDB20C
:10012000120EAD1A202D35DA49020126490AF605CC
:100130008A19002C00D0524220214F1B1146B94091
:100140002A411018C20D9A4221D0002C17D0012D3F
:1001500008DCDA05801AD20F8019D207DBB200F072
:10016000E7FBF8BDDA05801A012340001B06C01822
:1001700080185A428018CA0F1043490007E0490806
:10018000C2071143DA05801A80194008801800F070
:10019000C7FBF8BD61000122511A001BF7E70122DD
:1001A000D2075140AAE70122D2075040A6E70246F3
:1001B00070B54A40D30FDB0740002DD04A002AD04B
:1001C000010E140E000212020919400A520A841884
:1001D000E50104465443000A120A2E045043A419B0
:1001E0004219200CC543AA18120C0125AD03521C5C
:1001F000521912047F39240400D0521C104301D438
:100200004000491EC2B20C06C0092018401C40081C
:10021000802A02D003E0002070BD40084000002981
:1002200000DA0020184370BD70B502464A40D50F71
:1002300040004A00ED0740085208002814D0002A68
:1002400012D0C40DD30D41020120C0055202490A4B
:10025000520AE41A091812187D34914201D3641C21
:1002600000E04900002C01DA002070BD002391421B
:1002700001D3891A0343400849000028F7D1002917
:100280000AD0914202D10121C90705E0914201D271
:10029000012101E00121C943E005C018401900F027
:1002A0003FFB70BDF0B507460846584087B0C00F09
:1002B000049048000E46590040084908BC1A88417D
:1002C00005D2384631461E4617460B4602465800B0
:1002D000400810434CD0300D039040055900400DAC
:1002E000490D0590401A0290402872DA1803012146
:1002F000000B09050843019004980092002805D0DE
:1003000001995242002088410092019002984021B8
:100310000A1A0199009800F0CFFA05460C466B4680
:1003200007CB00F0EAFAC0197141039A0E0D0023C1
:10033000D71756401A467A40164344D0049A002AEA
:100340002DD0029A012A039A15DC1205C01A914198
:1003500001263605001C7141D20F059ED20700937D
:10036000019202962A46234600F028FB07B0F0BD12
:1003700038463146FAE71605224A0F46B218C01A27
:10038000B74101210905001C4F4100187F4111466A
:1003900018187941E20F10436D19644113E0E20728
:1003A0006D0815436408C2071443039A0126120519
:1003B000C01A91413605001C7141CE0740083043F8
:1003C0004908C01851412A46234600F0EAFACDE711
:1003D000FFE7049801224000C117121A00238B4145
:1003E00004983146C417381AA141EEE730B401240D
:1003F000E407634030BC55E730B40124E4076140B2
:1004000030BC4FE70000E0FFF0B51FB488B00B9997
:100410000998002448400999C00F490049080991EA
:10042000C0070B990090490049080B910999089859
:10043000A64608431CD00B990A98084318D009987F
:1004400001244000420D4800410D09982405000395
:10045000000B204309900B980003000B20430B90E6
:1004600050181C494018002201901446104605E01F
:10047000002001460DB0F0BD032801DA034600E07C
:1004800003239C46C11A0AAE0AE05F0008ADED5B8B
:100490004F00F75B7D430027AA187C41491C5B1E77
:1004A0006145F2DD410004AB5A522104120C0A43AB
:1004B000240C401C0828DFDB01980290009970464C
:1004C00001910090059B049A0799069800F076FA2E
:1004D000D0E700000DFCFFFFF0B50C465C4085B096
:1004E000E40FE40703944C00002664085900944686
:1004F000490802460296224321D062460A431ED092
:100500006200570D4A000E032303550D01240246D5
:100510002C492405781B1B0B360B4018234326431C
:10052000614600901C46501AB44103D30098401C09
:10053000009002E0921800985B41002803DA002046
:10054000014605B0F0BD0020012109050746864699
:1005500011E064461D46141BB54106D36546521B87
:10056000B341744607430C43A646CD0740084908EB
:10057000284392185B4105460D43EAD110461843C3
:1005800013D06046194650407140084306D060467B
:10059000101AB34106D20122002306E000220123F3
:1005A000DB0702E00122D243531000987446010594
:1005B000381C6141029C039D0019694100F0F1F96A
:1005C000BFE70000FD0300000122D207002800DB86
:1005D000101A002900DB511A814201D8012070470E
:1005E000002070470122D207002800DB101A0029E2
:1005F00000DB511A814201D2012070470020704770
:100600000122D207002800DB101A002900DB511A52
:10061000814201D3012070470020704710B50029A6
:1006200004DB0C460121C9074042A141002B04DB39
:100630001C460123DB075242A341801A994101D392
:10064000012010BD002010BD10B5002904DB0C46B0
:100650000121C9074042A141002B04DB1C460123B4
:10066000DB075242A341101A8B4101D3012010BD78
:10067000002010BD10B5002904DB0C460121C9077C
:100680004042A141002B04DB1C460123DB07524200
:10069000A341801A994101D2012010BD002010BD54
:1006A000C217C10F504010B54018CA079623002149
:1006B00000F03EF910BD10B500229623114600F05F
:1006C00037F910BD0EB5C217C10F5040CA07401808
:1006D0000021054B0293019200910A460B4600F05F
:1006E0006DF903B000BD000033040000C20F4100EB
:1006F00040020123400ADB05D207090EC0187F29FA
:1007000001DA00207047962903DC9623591AC84065
:1007100001E096398840002AF4D0404270474100F9
:1007200040020122400AD205090E80187F2901DA11
:1007300000207047962903DC9622511AC840704762
:10074000963988407047000070B5CD0F4A00090304
:100750000123090B1B0519430B4BED070024520D18
:100760009A4201DA002070BD074B34339A4203DC11
:100770009A1A00F0B1F802E00449511888402C435D
:10078000F1D0404270BD0000FF030000CDFBFFFF31
:100790004A0009030123090B1B051943094B10B536
:1007A000520D9A4201DA002010BD064B34339A42B2
:1007B00003DC9A1A00F090F810BD034951188840E4
:1007C00010BD0000FF030000CDFBFFFFC20FD207EA
:1007D000400040080BD0C10D0723DB01C9184002BF
:1007E0000905400A1143C208400711437047002021
:1007F00001467047CB0FDB07490010B54908024698
:100800000A4307D00A0D07240903E401090B121B50
:10081000002A01DC002010BDC900440F0C43C100B8
:10082000E018D205801800F07BF810BD30B50B46FB
:10083000014600202022012409E00D46D5409D42BA
:1008400005D31D469540491B254695404019154640
:10085000521E002DF1DC30BDF0B51FB4064600205D
:1008600082B005464024019100901BE00199224688
:100870000F46304600F030F8049A059B801A9941E3
:1008800010D310461946224600F016F8361A8F414A
:100890000197224601200021009F00F00DF8381832
:1008A0004D4100902046641E0028DFDC019B00982B
:1008B0002946324607B0F0BD10B5202A04DB0146B8
:1008C000203A9140002010BD914020239C1A0346FD
:1008D000E3401943904010BD10B5202A04DB0846C0
:1008E000203AD040002110BD0B46D340D0402024F8
:1008F000A21A91400843194610BD10B5202A06DB04
:10090000CB170846203A1041C1170B4306E00B46AF
:100910001341D0402024A21A91400843194610BD2B
:10092000002904DA401C490001D14008400070470A
:1009300070B40024050C05D11024000402D1002954
:1009400021D01124050E01D100020834050F01D178
:100950000001241D850F01D18000A41C002801DBAB
:100960004000641C002908D020252E1B0D46F540B0
:10097000A14000D001212943084301061B1B000AA6
:10098000DB1D02D5002070BC7047DB0518188018ED
:100990000029F8DA401C4900F5D170BC400840003D
:1009A000704710B5002B08DA0024401C61419218F2
:1009B0005B411A4301D14008400010BDF0B51FB49F
:1009C00082B005460C0003D0084608F0D5F902E0D5
:1009D00008F0D2F920300246009021462846FFF761
:1009E0006BFF049B059A04460F46184311430843C6
:1009F00014D0184610431BD0009840210A1A1846FC
:100A00000599FFF769FF05460E46009A0599049877
:100A1000FFF752FF084305D0012004E02046394685
:100A200007B0F0BD0020C11705430E432C433743E8
:100A300000990E986305401A7905E40A00220C43D8
:100A4000FD0A0A3002D500200146E9E70105101928
:100A500069410C9C0D9D00196941FFF7A2FFDFE77A
:100A6000FEB500231A461B1A8A4103DB002001460B
:100A700003B0F0BD4A000D0301212D0B0905520DF5
:100A80000D43D10702D100186D41521E5110FF31A4
:100A9000FF310131002704463E4638460097019158
:100AA0000246012100200905FFF716FFC319714115
:100AB000F818324684468E464A4161462846611AF5
:100AC000904104D36046241A954176461F46241966
:100AD00000986D41401C00903428E1DDF919304642
:100AE0007041091BA84103D20022D243134601E002
:100AF0000022134601980105381C7141FFF751FF90
:100B0000B6E70000F8B50546480040080C46284303
:100B100004D06000184A400D904201DD2846F8BD1F
:100B200015493539884210DC88420BDB290D20033A
:100B300008432903014305D0E00F1049C0074118BD
:100B40000020F8BD00200146F8BD161A4020821B87
:100B500028462146FFF7B0FE074600912846214669
:100B60003246FFF7B9FE3A46009BFFF71AFF3246BE
:100B7000FFF7A2FEF8BD0000330400000000F03FC4
:100B80004A0009030123090B1B0519430A4B10B541
:100B9000520D9A4202DA0020014610BD064B343352
:100BA0009A4203DC9A1AFFF797FE10BD034BD21846
:100BB000FFF782FE10BD0000FF030000CDFBFFFF2A
:100BC00010B5002904DB0124E40740428C41214692
:100BD000002B04DB1C460123DB075242A3418B425E
:100BE00000D1824210BD000010B5002904DB0124B1
:100BF000E40740428C412146002B04DB1C460123C4
:100C0000DB075242A341994200D1904210BD00003F
:100C100030B50446CD0FED070020054304D10D4645
:100C20000121C9076442A941DD0FED07284304D122
:100C300018460123DB07524283411846151B8841A1
:100C400001D2084806E00120400762404B401A43A9
:100C500000D10548EFF300810902090A014381F33D
:100C6000008830BD0000008000000060064C0125B7
:100C7000064E05E0E36807CC2B430C3C9847103444
:100C8000B442F7D3FFF726FA04C2000824C20008D2
:100C900070B54B005B0803430BD04B005C0D002686
:100CA00033466542B341D417AD1AA34102DB00209D
:100CB000014670BD12053018514170BD0EB5054991
:100CC0000291002100910A460B460191FFF776FE42
:100CD00003B000BD3304000080B58AB040F200507C
:100CE00006F0A6FB09200021029106F02BF90298DC
:100CF00005F0FEFB1348039003A802990176124AFF
:100D000005920122427640F20012049240F2004223
:100D10000692817640F22C12079242F2000208926B
:100D200001900846019905F00FFC029805F0D0FBF0
:100D3000029805F0BDFB0221029805F093FC0AB071
:100D400080BDC0464C240140B801002010B58CB0D5
:100D500001460B900020069020220A923F22099221
:100D600008900191FFE708980999884248DAFFE75F
:100D700008980699884228DAFFE70B980699090136
:100D8000421840580290D0680590906804905068CE
:100D900003900B98069909014218089B1B01C4187F
:100DA000C3584350E068D060A068906060685060AD
:100DB0000B98089909014218029B43500598D0608E
:100DC0000498906003985060FFE70A980790FFE747
:100DD0000798069988420ADCFFE706980799401AA7
:100DE00006900798C10F401840100790F0E706984A
:100DF000079940180690FFE70898401C0890B2E752
:100E00000CB010BD80B582B06846002101600220A0
:100E100064228C230190019902F093FC02B080BD02
:100E200080B584B0014603AA1070107801280291A1
:100E3000019004D0FFE70198022806D00BE0074894
:100E400044F2000105F009FE06E0044848F2000102
:100E500005F003FE00E0FFE704B080BD0008004895
:100E6000B0B588B00A4603460591049004980599E8
:100E70000024194D0292224601932B46FFF7C4FA33
:100E8000FFF762FC039003984010039003980F282B
:100E90000BDCFFE703981021081AC0000F490A185D
:100EA000085851680791069011E00398C0000B495B
:100EB00008187F21C94342587B21C9434358012068
:100EC000C1070020FFF792FA07910690FFE7069806
:100ED000079908B0B0BDC046000050403001002066
:100EE00080B582B00020022105F0E6FB002815D075
:100EF000FFE70B48012101700A480068002804D070
:100F0000FFE7084800688047FFE70020019005F0F0
:100F1000BFFA0121019805F0B9FBFFE702B080BDDF
:100F2000FC0800202808002080B598B00020179009
:100F30001690EC480068806A012800D0A5E0E948D6
:100F400001680A6849681590104608F035FFFFF7F8
:100F5000FBFB1790159801688868C96808F02CFF9A
:100F6000FFF7F2FB169015980168086A1491FFF7D5
:100F7000A9FB0022464B1390129111921093FFF798
:100F800035FAFFF705FC14994A6A0F901046FFF7EF
:100F900099FB0E900D91119A109BFFF727FAFFF71E
:100FA000F7FB13990C9008461299119A109BFFF7C2
:100FB00079F9384A119B0B921A460B9BFFF772F98D
:100FC000FFF7E6FB0E990A9008460D99119A109BBF
:100FD000FFF768F9119A0B9BFFF764F9FFF7D8FB4D
:100FE0006946119A0A600F99099008460C990A9A65
:100FF000099B02F0A6FB1798FFF764FB0890079186
:10100000119A109BFFF7F2F9FFF7C2FB16990690B1
:101010000846FFF757FB05900491119A109BFFF7C4
:10102000E5F9FFF7B5FB0899039008460799119A6F
:10103000109BFFF737F9119A0B9BFFF733F9FFF776
:10104000A7FB0599029008460499119A109BFFF797
:1010500029F9119A0B9BFFF725F9FFF799FB6946D0
:101060000D4A0A600699019008460399029A019B6D
:1010700002F067FB179815990A68106216980A68BB
:1010800050620868119A8262FFE718B080BDC046BE
:101090000000E83F0000F03FFFFF000070B588B09F
:1010A0000020079006902C4905918E4949680A69ED
:1010B000496904901046049A049BFFF7AFFA002890
:1010C00003D1FFE71F200590FFE72448806A01282D
:1010D0003FD1FFE7834841680A684968039010469A
:1010E00008F06AFEFFF730FB0790039841688868B4
:1010F000C96808F061FEFFF727FB06900398416876
:101100000A6A496A134619338C1C6D4600262E6004
:1011100090B289B29AB2A3B2029602F012FB07987B
:101120000699024619328B1C05AC24886D462C604A
:1011300080B289B292B29BB202F003FB0798039986
:101140004A68106206984A6850620448029A8262AD
:10115000FFE708B070BDC046E0FF0000A008002017
:1011600070B598B0014617906846002202601420BE
:1011700080230E9010460D9111460E9C0C92224633
:1011800002F0DFFA179824214143084619301F3135
:101190006A464FF60003136080B28BB202210A2226
:1011A0000B9008460B9902F0CCFA0C98169015900B
:1011B000149013901290119010900F902E490FAA36
:1011C00010460A9207F0C4FD69460C9A8A60102303
:1011D0004B602A4C0C60FB490E9D099028460891F3
:1011E00029460A9A089E07933346069403F000F9AD
:1011F0000C981690159014901390129011901090D6
:101200000F901F490A9807F0A3FD69460C9A8A605F
:10121000079B4B60069C0C6038210E9D059028466C
:101220000A9A089B03F0E4F80C9816901590149015
:1012300013901290119010900F9012490A9807F095
:1012400087FD69460C9A8A60079B4B60069C0C6080
:101250005C210E9D049028460A9A089B03F0C8F86A
:101260000C98169015901490139012901190109065
:101270000F9018B070BDC046F4BC00087C7D000023
:1012800005BD000816BD000880B582B000200190A1
:10129000FFE70198092823DCFFE700200090FFE723
:1012A0000098072817DCFFE7C848006980680199A3
:1012B000405C00990722511A01228A40104205D051
:1012C000FFE70098019905F07FFAFFE7FFE7009834
:1012D000401C0090E4E7FFE70198401C0190D8E72C
:1012E00002B080BD3C08002070B5AEB000202D904B
:1012F0002C902B902A902990289027902690B049E6
:1013000026AA25901046249207F022FD6946259AC8
:101310008A600C234B60AB4C0C6067210125AA4E00
:101320002390084622912946249A219333462096F9
:101330001F9403F05DF825982D902C902B902A9007
:101340002990289027902690A0490A69D268521CBB
:101350009F4B24981E91194607F0FAFC6946259A7E
:101360008A60219B4B6040F2E0740C600E21229C4D
:101370001D902046249A259B03F03AF825982D903D
:101380002C902B902A902990289027902690914974
:10139000249807F0DDFC6946259A8A60219B4B6002
:1013A0001F9C0C601E21229D1C902846249A209B85
:1013B00003F01EF825982D902C902B902A902990C0
:1013C0002890279026901E99CA68062A1B9237D823
:1013D0001B98810001A289188F46C04600F00CB806
:1013E00000F010B800F014B800F018B800F01CB805
:1013F00000F026B800F01EB87C4926A807F0A8FC2B
:101400001A901DE0784926A807F0A2FC199017E071
:10141000744926A807F09CFC189011E0704926A892
:1014200007F096FC17900BE06C4926A807F090FC9B
:10143000169005E0684926A807F08AFC1590FFE79A
:101440006846002181600C22426040F2E073036034
:1014500067202B2326AC1490139119461292224632
:10146000139B119402F0C4FF13982D902C902B9095
:101470002A9029902890279026905D49119807F08E
:1014800067FC6946139A8A60129B4B604D4C0C6056
:101490003B214D4B149C10902046119A02F0A8FF5E
:1014A00013982D902C902B902A902990289027907B
:1014B00026904649C96903290F9125D80F988100C4
:1014C00001A289188F46C04600F006B800F00AB89D
:1014D00000F00EB800F012B8494926A807F038FC11
:1014E0000E9011E0454926A807F032FC0D900BE064
:1014F000414926A807F02CFC0C9005E03D4926A8A0
:1015000007F026FC0B90FFE76846002181600C2263
:10151000426040F2E07303606720482426AD0A90E1
:101520000991214608922A46099C0793234606956D
:1015300002F05EFF09982D902C902B902A90299014
:101540002890279026902F49069807F001FC6946BD
:10155000099A8A60089B4B601A4C0C6058211A4B00
:101560000A9C05902046069A02F042FF09982D90A9
:101570002C902B902A902990289027902690134900
:101580004A691349069807F0E3FB6946099A8A609D
:10159000089B4B60079C0C6065210A9D04902846BF
:1015A000069A099B02F024FF09982D902C902B900D
:1015B0002A9029902890279026902EB070BDC04682
:1015C00065BD00080F780000FFFF00003C08002008
:1015D00055BD00086FBD00082DBD000827BD0008DF
:1015E00037BD00086ABD000832BD000850BD0008C4
:1015F0005BBD00084BBD000846BD000841BD0008AA
:101600003CBD000860BD000810B586B068461249B0
:1016100001600120652202230590059C049121466A
:101620000392029302F08DF8684604990160A020AD
:10163000059A019010461146029A019B02F081F82A
:1016400068460499016064200599039A019B02F0A1
:1016500078F806B010BDC0461F840000B0B58AB04F
:101660000A46034609AC207008A8018007A9002497
:101670000C8006A90C8005A90C80008800B23128D6
:101680000492039306DCFFE708A8008800B2002854
:1016900004DAFFE708A832210180FFE709A80078F3
:1016A0000899401A06A908802E480078002811D011
:1016B000FFE706A8018800204FF60002029002F022
:1016C00022F82948029901800698284A1080254866
:1016D000017044E024480088401C07A9088008885D
:1016E00063282CDCFFE72048204906AA138807AAB4
:1016F0001288098800886C464FF60005256001F0C5
:1017000059FF05A81E210180FFE705A80088502881
:101710000EDCFFE70798401C05A9098880B200226B
:1017200001F0F1FFFFE70598401C05A90880ECE7F0
:1017300007980D49088006980C4908800EE006A815
:10174000018800204FF60002019001F0DCFF0648FE
:10175000019901800698054A1080FFE7FFE70AB06B
:10176000B0BDC046180000206C0800206E080020A4
:1017700080B586B0102005F0DFF8002856D0FFE7CE
:1017800074480068002804D1FFE7102005F0CAF86B
:10179000DDE071480068012816D1FFE76F48082195
:1017A00005F067F96F4908601020059005F0BAF858
:1017B00000200599049008460499049A05F02EF833
:1017C0006548049901602DE06448082105F051F94D
:1017D00063490860634800680968884221D0FFE7D0
:1017E0005F480068002809D1FFE75A4800685F4950
:1017F0000968039008460399884708E0554800683F
:10180000594909680290084602998847FFE7102065
:1018100000210122019205F001F84F480199016071
:10182000FFE7FFE7102005F07DF8FFE740F200201A
:1018300005F082F8002827D0FFE74D48006800280F
:1018400005D1FFE740F2002005F06CF87FE0434847
:1018500040F2002105F00DF9012810D1FFE7012029
:1018600004F0D2FD3D4840F2002105F002F90128C4
:1018700004D1FFE73E4800688047FFE7FFE740F2FA
:10188000002005F04FF8FFE742F2000005F054F8A1
:1018900000281AD0FFE7052004F0B6FD2F4842F2D9
:1018A000000105F0E6F800280AD1FFE7314800689A
:1018B000002804D0FFE72F4800688047FFE7FFE7D4
:1018C00042F2000005F02EF8FFE744F2000005F0B8
:1018D00033F800281AD0FFE7052004F095FD1F48D3
:1018E00044F2000105F0C5F800280AD1FFE72248BC
:1018F0000068002804D0FFE71F4800688047FFE722
:10190000FFE744F2000005F00DF8FFE748F20000A1
:1019100005F012F800281AD0FFE7052004F074FD46
:101920000E4848F2000105F0A4F800280AD1FFE7AC
:1019300012480068002804D0FFE71048006880477C
:10194000FFE7FFE748F2000004F0ECFFFFE706B016
:1019500080BDC0463008002014000020000400486C
:1019600020040020D00D00200800002004000020EA
:101970002C0800206008002064080020680800206F
:10198000B0B5A6B0402025907A48FFF7DFF90120D6
:101990002190FFE7259840102590012805D0FFE70A
:1019A000FFE72198401C2190F4E701202590FFE7F4
:1019B00025982199884200DDDAE0259801218140AF
:1019C000209120984010249000202390FFE7239836
:1019D0002499884200DBC6E02398FEF773FE249A20
:1019E000139010461291FEF76DFE139A1190104657
:1019F000129B10911946119A109BFEF76DFD1D91D7
:101A00001C901D991C98FFF72BFA199118901D999D
:101A10001C9801F08DFC0122D20751401A901B91B5
:101A200023982290FFE722983F2800DD96E0229835
:101A3000249940181F901F9800014E490A18085811
:101A40005368189C199D0F9119460E9222462B46F9
:101A5000FEF7DAFC0E9A9368D4681A9A1B9D0D90D3
:101A600018460C9121462B46FEF7CEFC0D9A0B90A2
:101A700010460C9B0A9119460B9A0A9BFEF7B6FC7E
:101A8000159114901A981B991F9A12010F9B9C187C
:101A90009A5863680994FEF7B7FC099A9368D4686A
:101AA000189A199D08901846079121462B46FEF773
:101AB000ABFC089A06901046079B05911946069ABA
:101AC000059BFEF7EFFB17911690229800010F99E6
:101AD0000A1808585168149A159BFEF787FC1F9A3C
:101AE00012010F9B9C1898506160229800011818F1
:101AF0008168C068169A179B049008460499FEF7FF
:101B000075FC1F9A12010F9B9A18D1609060229861
:101B1000000119181A584C68149D159B0390104623
:101B2000029121462A46FEF7BDFB0F9A039BD05037
:101B3000029841602299090151188868CC68169A68
:101B4000179B01912146FEF7ADFB019AD160906091
:101B5000FFE7229820994018229064E7FFE7239836
:101B6000401C239033E7FFE72598401C25901FE792
:101B700026B0B0BD2804002083B0014602AA108020
:101B800001A800230380108840F22D12904200919A
:101B900004D3FFE702A800210180FFE702A8018823
:101BA0004900054A515A01AB1980008840000021C4
:101BB0001152188803B07047B8010020FFE7FEE714
:101BC00010B51C481C4901611C4901601C49416059
:101BD000032141610021C1600269D1600269194B92
:101BE00053600269184B93600268184B5361184B9D
:101BF00013610268174CD4619361026801239362F8
:101C00004268154C54601160426832241462426884
:101C1000124CD46091604268114C54611161426869
:101C20009624546242689362C16100F027FE05F079
:101C30005DF910BD3C080020DC0800207008002081
:101C4000A0080020D0080020EC0800209EA0E63F5D
:101C5000BBB9F8DB9EA0E6BF0000494000C062406F
:101C60000000084080B582B006F00CF900F03CFAA4
:101C7000174800210160019101F0D8FD68460199E3
:101C800001608022A023084601F05BFD00F02EF9E0
:101C900000F004F900F0E4F90E4801F0F9FA0E48FA
:101CA00001F0EAFA0D4801F0FFFA0120FFF7B8F859
:101CB0000220FFF7B5F8FFF783FFFFF7A5FCFFF75A
:101CC000EDF9FFF7E1FAFFF70FFB02B080BDC04668
:101CD0001000002015290008ED2800084D2A0008F2
:101CE00080B582B01E48019000F034FA06F0CAF8C0
:101CF00000F0FAF901F09AFD684600210160A02287
:101D00008023084601F01DFDE120400200F01CFC8C
:101D1000FEF7E2FF00F076F80198C168481E0199CD
:101D2000C98800F037FA00F0E1F800F099F90D48A1
:101D300001F0AEFA0C4801F09FFA0C4801F0B4FA39
:101D40000B4801F0BDFA0B4801F0C6FA0A4801F051
:101D500087FA00F021F902F035FD02B080BDC046DF
:101D6000FC080020812900080D290008452A0008E8
:101D7000692A0008712A0008CD28000880B582B0C1
:101D80001A4800681A490968401A1A49086006F09A
:101D900079F800F0A9F901F049FD684600210160D9
:101DA000A0228023084601F0CCFCE120400200F094
:101DB000CBFB00F047FB00F08FFB00F0EBFA0E4886
:101DC00040F2F41100F0E6F900F090F800F048F964
:101DD0000A4801F05DFA0A4801F042FA00F0DCF826
:101DE00002F0C0FC00F0ACF802B080BD2000002082
:101DF00028000020CC0D0020E7030000A5290008E2
:101E0000D528000880B586B0904805F011FB22481F
:101E100005F00EFB0920059005F0C4F80598C006F2
:101E20000321002208230491039204F03BFE0220C8
:101E30000121029103F0FEF940F20010039903F032
:101E4000F9F940F20040039903F0F4F9039803F024
:101E50007DF80298029903F041F807200399019058
:101E600008460499019A03F011F901984104029877
:101E700003F0E0F80298029903F096F803F086F870
:101E8000029804F0C1FA03F00DF803F077F8029815
:101E900003F0AEF906B080BD0906000080B584B03D
:101EA0008E4805F0C5FA40F2006005F0C1FA8C4892
:101EB00000210122102303910292019304F0F2FD0C
:101EC0000720029905F03EF80421029805F0ECFE87
:101ED00001980399029A04F0A1FC019804F014FD02
:101EE000019804F01FFD04B080BDC04680B584B0E9
:101EF0007A4805F09DFA40F2006005F099FA7848BA
:101F00000021012240F208230391029204F0CAFD4D
:101F10000720029905F016F80921029805F0C4FE81
:101F200040F2002001900399039A04F077FC019895
:101F300004F0EAFC019804F0F5FC04B080BDC04652
:101F400010B582B000200190FFE70198102819DC3D
:101F5000FFE701984000FEF7B5FB0B4A0B4BFEF77D
:101F600053FA00220A4BFEF7B7FA07F073FF019A03
:101F7000D200084B9C1898506160FFE70198401C04
:101F80000190E2E702B010BD182D4454FB21094036
:101F9000000050403001002080B58EB0FA4805F0B6
:101FA00047FA2B4805F044FA0920C0060221002216
:101FB0004023079006910592049304F073FD0322D9
:101FC00007980599049B04F0BEFD01200799039032
:101FD00008460399049A04F0CBFC1020069904F0FB
:101FE000B1FF1C48029006F08BFA08A8019006F099
:101FF000D3FC194801990880059848808880174AC1
:102000000A92C880029806F005FB0CA8009005F023
:10201000F6FF059800990880039A4A808880C88056
:1020200002980599009A06F077FB029805F04AFF9E
:102030000298069906F064FC0298069906F051FC95
:10204000029806F0DCFA0EB080BDC0461105000013
:102050000107000000040040CF020000FFFF000065
:1020600080B586B01D4805F0E3F91D480021012226
:102070001C4B0591049204F015FD0720032104F088
:1020800061FF0D21049805F00FFE0E21049805F064
:102090000BFE0F21049805F007FE42F200000390AA
:1020A0000599049A04F0BAFB44F2000002900599E5
:1020B000049A04F0B3FB48F2000001900599049AD9
:1020C00004F0ACFB039804F02DFC029804F02AFC09
:1020D000019804F027FC06B080BDC0461205000040
:1020E0000004004808E2000080B586B0174805F0FB
:1020F0009FF917480121002244F200030590049142
:102100000392029304F0CEFC48F20000059901907E
:1021100008460499039A019B04F0C4FC0320059926
:10212000009008460399009A029B04F00CFD059864
:102130000399009A019B04F006FD0498FEF770FED7
:102140000220FEF76DFE06B080BDC04613050000FC
:102150000008004810B582B00146019001980022A5
:102160000270019807238360019842700198827081
:1021700001980261019840F2E8338380019840F2AF
:10218000F414C4800198C36001984261009102B0C8
:1021900010BD000010B594B00A460346139012918A
:1021A000CB480A92099305F043F940F2106005F01C
:1021B0003FF90920C006022100220423089007915C
:1021C0000692059304F06EFC032208980699059B7D
:1021D00004F0B9FC08980699059A04F0C9FB254853
:1021E000049006F08DF90BA8039006F0D5FB47206C
:1021F00003990880069848808880139A0D92C880B9
:102200000873049806F006FA0FA8029006F065F924
:10221000012002990880069A4A80079B8B80082437
:10222000CC8040F200140C8140F200244C81049CCC
:10223000019020461146029A05F0F2FE129A049887
:10224000069906F0C3F870220498069906F068F81B
:1022500004980699069A06F0EBF8049805F032FE09
:102260000498019906F07BFB049806F0BDF914B0C0
:1022700010BDC0460040014080B58EB0EC4805F06E
:10228000D7F8424805F0D4F80920C0060021A02262
:1022900006900591049204F06BFB02210698059AC2
:1022A000049B04F0FFFB0320069903900846059960
:1022B000039A049B04F047FC3548029005F0CEFBDE
:1022C00007A8019005F0D8FC4CF20000089040F2FD
:1022D0000410079040F20070099003980C9040F2AF
:1022E00000210A9105990D910B910298019905F031
:1022F00023FC02990090084605F079FB0EB080BDE2
:1023000080B58EB0CA4805F093F8204805F090F8E3
:102310000920C0060021A02206900591049204F035
:1023200027FB02210698059A049B04F0BBFB0320BF
:102330000699039008460599039A049B04F003FC50
:102340001348029005F08AFB07A8019005F094FC61
:102350004CF20000089040F20410079040F6007024
:10236000099003980C9040F200210A9105990D9173
:102370000B910298019905F0DFFB02990090084645
:1023800005F035FB0EB080BD110500000C06000005
:102390000030014080B58CB0274805F049F8274847
:1023A000049006F0ADF805A8039006F0F5FA24486D
:1023B0000399088000204880888031220792C880D5
:1023C0000873049A0290104606F024F909A80190B7
:1023D00006F083F8012001990880029A4A800223BE
:1023E0008B800823CB8040F200130B8140F2002346
:1023F0004B81049B009018461146019A05F010FE8F
:1024000019220498029905F0E1FF702204980299BC
:1024100005F086FF04980299029A06F009F80498DC
:1024200005F050FD0498009906F099FA049806F01A
:10243000E6F80CB080BDC0460B060000002C014041
:10244000CF02000080B584B0794804F0F1FF214844
:1024500004F0EEFF0920039004F0A4FD0398C006E9
:102460000321002208230291019204F01BFB0220A9
:10247000019902F0DFFE40F20010019902F0DAFE4D
:1024800040F20040019902F0D5FE019802F05EFD95
:1024900001200090009902F021FD07220198029985
:1024A00002F0F4FD0098019902F0C4FD0098009933
:1024B00002F07AFD02F06AFD009803F0A5FF02F039
:1024C000F1FC02F05BFD009802F092FE04B080BDCA
:1024D000110500000906000080B58AB040F20050E6
:1024E00004F0A6FF09200021029104F02BFD0298C0
:1024F00003F0FEFF1248039003A802990176114AE7
:1025000005920122427640F20012049240F200420B
:10251000069281764022079242F2000208920190D0
:102520000846019904F010F8029803F0D1FF0298D0
:1025300003F0BEFF0221029804F094F80AB080BDB7
:102540004C240140B801002080B58AB001460990B2
:102550003748089104F06CFF364804F069FF092001
:10256000C006012140F2002207900691059204F076
:10257000FFF940F200400799049008460699049A32
:1025800004F0F6F902200799039008460399069A89
:10259000059B04F087FA00200799029008460299EB
:1025A000069A059B04F0CFFA07980399069A049BB4
:1025B00004F078FA07980299069A049B04F0C3FA8B
:1025C0001D48019006F05AFA0198029906F0A6FB00
:1025D0000198029906F074FB0198029906F042FBFB
:1025E0000999019806F0EEF90421019806F054FBD0
:1025F0000821019806F07EFB4021019806F06AFA56
:10260000019806F07BFAFFE70B480C4906F095FAB3
:10261000002801D1FFE7F7E707480849009006F0D6
:1026200078FA0421009806F0A9FA0AB080BDC046E5
:10263000110500000E0600000038014004070000EC
:1026400080B58CB001460B900AA80022027009A840
:10265000027008920B984078401E0528079106905A
:1026600000D9FBE00698810001A289188F46C04678
:1026700000F00AB800F074B800F02DB800F0EDB822
:1026800000F082B800F0B5B80B98C068FEF713F8F8
:102690007949FDF78CFD0B99C98805900846FDF72F
:1026A000FFFF0599049008460499FDF727FDFEF702
:1026B00036F80B99C8800B98C0880B99C968884276
:1026C00004D9FFE70B980021C180FFE70B98C08871
:1026D00000F01EFEC3E00B98C088FDF7E1FF0B99E8
:1026E000C96803900846FDF7E6FF03990290084683
:1026F0000299FDF799FD08900B98C068FDF7DBFF84
:1027000001218907FDF790FDFEF709F80B99C860D4
:102710000B98C068F92805D8FFE70B9840F2E8311C
:10272000C160FFE70B98C0685249B1FBF0F00B990C
:1027300088800B98C068FDF7BEFF0899FDF737FD4C
:10274000FDF7EDFF0B99C8800B98C08800F0E0FD05
:102750000B98C068401E00F0CBFD002008907EE082
:102760000B988078002807D1FFE70B980121817032
:102770003F4805F044FF06E00B98002181703C487B
:1027800005F032FFFFE76AE00B988068C01E04285E
:10279000019023D80198810001A289188F46C04674
:1027A00000F018B800F012B800F00CB800F006B84D
:1027B00000F000B80B980621816013E00B9805210A
:1027C00081600FE00B98042181600BE00B980321DE
:1027D000816007E00B980321816003E00B980721DB
:1027E0008160FFE70B9882680020032102F04EFC15
:1027F00035E00B988068C01E0428009022D800980D
:10280000810001A289188F4600F018B800F012B8B4
:1028100000F00CB800F006B800F000B80B980721E3
:10282000816013E00B98072181600FE00B9806216F
:1028300081600BE00B980521816007E00B98042173
:10284000816003E00B9807218160FFE70B988268A5
:102850000020032102F01AFC01E000E0FFE70B98E2
:10286000002141700B9801F013FE0CB080BDC046F2
:102870000040014040420F00CDCC4C3D81B0F348B8
:102880000069C1680A224A430E4989180160002084
:102890000090FFE70098092811DCFFE7EB48016989
:1028A0004968009A00238B5400690168009A895C8A
:1028B00080688154FFE70098401C0090EAE701B06F
:1028C0007047C04658A00008704700006A480121C0
:1028D0000170704780B5034805F086FE024801216B
:1028E000016080BD002C014034080020D748017AE7
:1028F000042211430172704780B503480121016031
:10290000084600F0BBF880BD5C0800205A4804214E
:102910004170704782B001460190019801280091F2
:102920000ADBFFE7C948017AFE2211400172017AF1
:1029300002221143017209E0C448017AFD221140CC
:102940000172017A012211430172FFE702B0704760
:1029500010B582B00146019008480268019BD21868
:10296000D21C032392FBF3F46343D21A0260006883
:102970000091FEF7F5FB02B010BDC046F80800203C
:1029800082B00146019001980128009104DBFFE725
:1029900039480621417003E0374805214170FFE7BF
:1029A00002B0704780B586B00146059005980128B1
:1029B00004910FDBFFE71D48016803900846FDF70F
:1029C00005FF1B4A1C4BFDF76DFCFDF713FF039938
:1029D00008600EE01548016802900846FDF7F6FE13
:1029E000134A144BFDF75EFCFDF704FF02990860E3
:1029F000FFE70E48016801900846FDF7E7FE002258
:102A00000E4B009207F09CF9FDF7F4FE0199086067
:102A10000868FDF7DBFE0A4B009A07F0AFF9FDF7F7
:102A2000E9FE0199086006B080BDC0462C00002078
:102A30009A9999999999C9BF9999C93F0000F03F0E
:102A4000000010400C4801214170704780B57F485C
:102A5000C169491CCA17920F8A1803239A43891A1D
:102A6000C161FEF741FC80BD0348022141707047FF
:102A70000148032141707047FC08002080B584B0F4
:102A8000014603AA1070107801280291019004D029
:102A9000FFE70198022806D00BE0074844F2000146
:102AA00003F0CFFF06E0044848F2000103F0C9FF3D
:102AB00000E0FFE704B080BD000800487047000058
:102AC00010B58EB060480D9000200C900B900A90CD
:102AD0000390FFE75D48C169C9005D4A531851582A
:102AE0005A680023584C0090084611461A4623465F
:102AF000FDF78AFC0D910C900098C168002909D15E
:102B0000FFE704F029F90D990C9803F0F7FB04F0A6
:102B1000EDF991E04D48C06801285FD1FFE704F06E
:102B200029F90D990C9803F0E9FB0D990C980AAA64
:102B300002F004FC0390FFE70398002807D1FFE7A9
:102B40000B990A980AAA02F0F9FB0390F4E73F48B0
:102B50008069002815D0FFE73C4800218161416968
:102B6000491E41614069012804DBFFE73748042121
:102B7000C16003E035480521C160FFE7FEF7B4FB03
:102B8000FFE7002002900190FFE7019809280DDC83
:102B9000FFE72E48006980680199405C0299081897
:102BA0000290FFE70198401C0190EEE70298002890
:102BB00013D1FFE704F07AFC24480069C0680328B9
:102BC00004D1FFE721480621C16003E01F4803212B
:102BD000C160FFE7FEF788FBFFE72CE01B48C068F9
:102BE000022803D1FFE704F0A9F823E01748C068E2
:102BF000032803D1FFE703F0F5FF1AE01348C0688C
:102C0000042803D1FFE704F06BF811E00F48C06817
:102C1000052803D1FFE704F023F808E00B48C0685B
:102C2000062803D1FFE704F0B3F8FFE7FFE7FFE76B
:102C3000FFE7FFE7FFE7FFE703F096FE04F036FC4F
:102C40000F2003F0E1FB45E70000E03F3C080020D7
:102C500080A0000810B58CB00BA8002101800A915B
:102C600009917F20C00508900791069105A8018071
:102C7000FFE789480490FFF7E3FC049801780129F5
:102C800000D005E184480021017041610BA801805A
:102C9000FFE70BA8008840F22B11884245DCFFE7D4
:102CA0000BA8018803900846FEF766FFFDF7F8FCC5
:102CB0007E49FDF77CFA8B21C905FDF7B5FA069030
:102CC000069803218907FDF772FA7949FDF716FA8C
:102CD00003990A88704B1C4618349200A05058691A
:102CE0000A889200A158FDF78BFC002808D1FFE765
:102CF0000BA8008880006849081880694861FFE7D0
:102D000065484069FDF762FD644A654BFDF7B2FC1A
:102D1000002804D1FFE7604800210161FFE7FFE7D9
:102D20000B98401C0BA90880B3E7002040F22C113F
:102D3000029003F029FD029803F0BAFB0BA8029958
:102D40000180FFE70BA80088C7282FDCFFE70BA84E
:102D5000008880005049081880690899FDF750FCE8
:102D600000281DD1FFE7FFE70BA80088C72816DC65
:102D7000FFE70BA800888000474908188069089978
:102D8000FDF722FC002804D1FFE70B9805A9088075
:102D900005E0FFE70B98401C0BA90880E4E705E07D
:102DA000FFE70B98401C0BA90880CBE73A48406925
:102DB000FDF70CFD394A3A4BFDF730FC00280DD1E8
:102DC000FFE73548406901218907FDF72DFA0A9090
:102DD0000A993448FDF728FA0790FFE705980BA9F0
:102DE0000880FFE70BA8008805A90988643188429C
:102DF0004DDAFFE728484078042813D1FFE726483A
:102E000000214170FFE724484078042804D1FFE7FF
:102E100021480021417004E0FFE701200028F2D1A1
:102E2000FFE7FFE70BA8008880001B4908188069AE
:102E3000099009980A99FDF7D5FB00280CD1FFE706
:102E400009990A98FDF7ABF90799FDF7B0F916490A
:102E5000FDF754F909900BE00A980999FDF79FF9DD
:102E60000799FDF7A4F91049FDF748F90990FFE724
:102E70000998FDF73BFC5021019008460199FEF7A7
:102E8000EDFBFFE70B98401C0BA90880AAE7FFE7C2
:102E9000014801F0FDFAECE6FC080020333333333F
:102EA0003333D33F000034410000F041333353400B
:102EB0000000A040F0B5B5B034A8002101803391E6
:102EC000FFE7BE480068012800D076E1BB4800213A
:102ED000016034A80180FFE734A800883F286ADC3D
:102EE000FFE734A80088202811DCFFE734A8008819
:102EF000FDF7E8FB2F902E912F9A2E9BFDF7D2F92C
:102F00000022BD4BFDF7E8FA2D902C9112E034A879
:102F100000884021081AFDF7D5FB2B902A912B9AA7
:102F20002A9BFDF7BFF90022B34BFDF7D5FA2D9090
:102F30002C91FFE72C982D993091319034A801887D
:102F400029900846FEF718FEFDF7BCFB319A309B2E
:102F50002890184627911146FDF782FF0022A74BC3
:102F600026922593FDF750FA269A24901046259B29
:102F700023911946249A239BFDF738FA289A229028
:102F80001046279B21911946229A219BFDF73CFA76
:102F9000299A13881B01954CE518E0506960108848
:102FA000000120182699C1608160FFE73498401C19
:102FB00034A9088090E7FEF7E3FC34A802210180E1
:102FC000FFE734A800881F286DDCFFE734A80188DC
:102FD000CA007C4B9C189A586468824D824E20909F
:102FE00010461F9121462A461E933346FDF70CFAE0
:102FF0001F9A13017D4CE518E3586C681D90184624
:103000001C9121461A4623461B95FDF7FDF91B9A94
:103010009368D4681A901846199121461A46234697
:10302000FDF7F2F91A9A18901046199B1791194654
:10303000189A179BFDF736F906F05AFF209A138865
:103040000124002B169015911493139401D1149818
:10305000139013984021C1400846FDF733FB169AA0
:1030600012901046159B11911946129A119BFDF76B
:1030700033FA5F4A5F4BFDF7C7F91D9A109010466F
:103080001C9B0F911946109A0F9BFDF70BF9149A90
:10309000D3001E9CE518E0506960FFE73498401C9F
:1030A00034A908808DE7002040210E9003F06CFBCE
:1030B0000E9803F0FDF9424805F0A1FA34A8022168
:1030C0000180FFE734A800881F2875DCFFE734A8DB
:1030D0000088C0003B490A18085851683A4A1268EB
:1030E0000D9010460C91FDF771FB0D9A0B90104658
:1030F0000C9B0A9119460B9A0A9BFDF785F9FDF77F
:1031000023FB3390339831490968884204DDFFE797
:103110002E480068099002E033980990FFE709986B
:1031200033902B48016834AA13882A4C25686D1CFB
:103130002E465E438E19284F5B1C5D434919491E7C
:10314000264B1D883F8808906846079024480691C2
:1031500007990860B0B2069EB6B23946059232466B
:1031600004932B46039400F0ECFA08980168059A42
:103170001388039C25686D1C2E465E438E19049FA0
:103180003868339A821A5B1C5D434919491E6B46A5
:103190001F251D6092B2B3B289B280B20290184668
:1031A00001911146019A029B00F0CBFAFFE7349897
:1031B000401C34A9088085E7FFE782E63408002038
:1031C000002C0140300000202C000020CC0D0020FD
:1031D000240000201C0000202800002020000020E7
:1031E00067390000666666666666E63F280400206A
:1031F000333333333333D33F000050400000E03FDC
:1032000080B582B0014601AA10700091FFE7124814
:10321000022104F049FC002801D1FFE7F7E701A8EB
:1032200001780D4804F0EEFB02B080BD80B582B09D
:10323000014601AA10800091FFE70748022104F02F
:1032400033FC002801D1FFE7F7E701A80188024815
:1032500004F0D8FB02B080BD003001407047000090
:1032600082B0014601900198024A1060009102B0BC
:103270007047C0462808002082B00146019001989E
:10328000024A1060009102B07047C0462C0800202E
:1032900082B0014601900198024A1060009102B08C
:1032A0007047C0463008002082B001460190019866
:1032B000024A1060009102B07047C04660080020CA
:1032C00082B0014601900198024A1060009102B05C
:1032D0007047C0466408002082B001460190019802
:1032E000024A1060009102B07047C0466808002092
:1032F00080B584B00146039003A800880B4A029071
:103300001046029A0191114604F0E7FD04B080BD19
:1033100080B582B0014601AA1080128803480023BC
:103320000091194605F052F802B080BD00400140FE
:10333000B0B586B00A4603460591049004980599F5
:1033400000240F4D0292224601932B46FDF75CF8B4
:10335000FDF7FAF9039003984010039003981128A1
:1033600005DBFFE703982021081A0390FFE7039885
:10337000C00004490A180858516806B0B0BDC046DC
:1033800000005040300100207047000080B584B03C
:1033900034480168012211430160FFE731480068A9
:1033A0000221084201D1FFE7F8E7FFE72E48016854
:1033B00080221143016000200390FFE703987F28DB
:1033C00005D8FFE7FFE70398401C0390F6E726487F
:1033D000016890221143016000200390FFE70398E9
:1033E0007F2805D8FFE7FFE70398401C0390F6E726
:1033F000FFE71D48016803229143016019490A68EB
:103400001A4B1A400A600168194A114001600168AC
:10341000184A11400160184801680F229143016069
:103420001648016840F203129143016001680122CD
:103430001304994301600168D30799430160104860
:103440000168914301600F480021016002920191DF
:1034500004F0FCFC0298C006019903F08BFD04B057
:1034600080BDC0460010024004100240FFFFF2FE83
:103470000C00FF08FFFFC2772C1002403010024002
:103480003410024008100240F0B58BB01C461546BF
:103490000E46074606900AA80590069804910599DD
:1034A000088009A90498088008A90A8007A90B8048
:1034B0003F490968002903950296019700941AD1A3
:1034C000FFE72A2001F076FB0AA8008801F01EFB26
:1034D00008A8008801F01AFB2B2001F06BFB09A85B
:1034E000008801F013FB07A8008801F00FFB2C20D7
:1034F00001F060FB59E02E48006801281AD1FFE76F
:103500002A2001F057FB0AA8008801F0FFFA08A85A
:10351000008801F0FBFA2B2001F04CFB09A8008881
:1035200001F0F4FA07A8008801F0F0FA2C2001F06D
:1035300041FB39E01E48006802281AD1FFE72A2023
:1035400001F038FB0AA8008801F0E0FA08A800881A
:1035500001F0DCFA2B2001F02DFB09A8008801F016
:10356000D5FA07A8008801F0D1FA2C2001F022FB3F
:1035700019E02A2001F01EFB0AA8008801F0C6FA13
:1035800008A8008801F0C2FA2B2001F013FB09A85B
:10359000008801F0BBFA07A8008801F0B7FA2C20D8
:1035A00001F008FBFFE7FFE7FFE70BB0F0BDC04607
:1035B00010000020F0B597B01C9C1D4616460F4623
:1035C0000790069016A80590079804910599088021
:1035D00015A80499018014A90A8013AA138012ABBC
:1035E0001C8011AB00241C8010940F940E940D9439
:1035F0000C940B940A94099408940988059B1C88E0
:10360000091B0E9111880288891A0D911988099158
:10361000008808900E98012803970295019603DB15
:10362000FFE701200B900EE00E98002803D1FFE782
:1036300000200B9006E00020C0430B900E98404203
:103640000E90FFE7FFE70D98012803DBFFE701205D
:103650000A900EE00D98002803D1FFE700200A90A1
:1036600006E00020C0430A900D9840420D90FFE70D
:10367000FFE70E980D99884203DDFFE70E980C9046
:1036800002E00D980C90FFE711A800210180FFE7F0
:1036900011A800880C99491C884232DAFFE712A869
:1036A000028808A8018809A8008800F02CF80E9864
:1036B0001099081810900D980F9908180F901098ED
:1036C0000C99884209DDFFE70C981099081A1090B0
:1036D0000B98099908180990FFE70F980C998842F0
:1036E00009DDFFE70C980F99081A0F900A980899BE
:1036F00008180890FFE7FFE71198401C11A90880FF
:10370000C6E717B0F0BD70B588B013460C46054645
:1037100007AE308006A8018005A90A80008832889B
:1037200004901046049E039131460293334601955E
:103730000094FFF7A9FE0398008801F0E7F908B0AC
:1037400070BDF0B591B0169C1D4616460F46099007
:10375000089010A8079009980691079908800FA86B
:10376000069901800EA90A800DA90B800CA90C8076
:103770000BA900220A800AAB1A800E9A521E0D9BDA
:103780005B1E0088079C248892B29BB2059020465D
:10379000059C04912146039502970196FFF774FE5C
:1037A0000F9804990880FFE70BA800880DA90988E5
:1037B00088421BDAFFE710980AA90880FFE70AA8E9
:1037C00000880EA9098888420ADAFFE70CA8008859
:1037D00001F09CF9FFE70A98401C0AA90880EEE76F
:1037E000FFE70B98401C0BA90880DDE711B0F0BD86
:1037F00080B584B00C4803F01BFEA44801210022D0
:1038000040F2E01303900292019303F04BF903227C
:1038100003980299019B03F096F90398019903F02C
:103820001CF904B080BDC0461205000080B592B0FE
:10383000FFF7DEFFFEF720FD944820211190109144
:1038400003F0FFF864200F9002F0DEFD119810994C
:1038500003F003F90F9802F0D7FD40F20011119820
:1038600003F0FBF80F9802F0CFFD112001F07EF974
:10387000782002F0C9FDB12001F078F905200E9002
:1038800001F05CF93C200D9001F058F90D9801F021
:1038900055F9B22001F06AF90E9801F04FF90D9830
:1038A00001F04CF90D9801F049F9B32001F05EF9EF
:1038B0000E9801F043F90D9801F040F90D9801F0D0
:1038C0003DF90E9801F03AF90D9801F037F90D988D
:1038D00001F034F9B42001F049F9032001F02EF988
:1038E000C0200C9001F042F9282001F027F90820AF
:1038F00001F024F9042001F021F9C12001F036F98A
:103900000C9801F01BF9C22001F030F90D2001F0F4
:1039100015F9002001F012F9C32001F027F98D20DC
:103920000B9001F00BF92A2001F008F9C42001F0F6
:103930001DF90B9801F002F9EE2001F0FFF8C52007
:1039400001F014F91A2001F0F9F8362001F00EF90F
:103950004F480068002804D1FFE7002001F0EEF88E
:1039600017E04B480068012804D1FFE7C02001F0B0
:10397000E5F80DE046480068022804D1FFE7702012
:1039800001F0DCF803E0A02001F0D8F8FFE7FFE742
:10399000FFE7E02001F0EAF804200A9001F0CEF8F9
:1039A000222001F0CBF8072001F0C8F80A2001F02E
:1039B000C5F82E20099001F0C1F8302001F0BEF8C2
:1039C0002520089001F0BAF82A2001F0B7F8282045
:1039D00001F0B4F82620079001F0B0F8099801F042
:1039E000ADF83A20069001F0A9F80020059001F00A
:1039F000A5F80120049001F0A1F8032001F09EF841
:103A00001320039001F09AF8E12001F0AFF80A9832
:103A100001F094F8162001F091F8062001F08EF8DC
:103A20000D2001F08BF82D20029001F087F8079807
:103A300001F084F8232001F081F82720019001F0A3
:103A40007DF8019801F07AF8089801F077F802986B
:103A500001F074F83B2001F071F8059801F06EF860
:103A6000049801F06BF80A9801F068F8039801F0E7
:103A700065F8069801F07AF8052001F05FF8292032
:103A800001F074F8FEF73CFC12B080BD0004004861
:103A900010000020F0B59FB0269C259D249E1F4657
:103AA000109010460F9008460E9010980D901EA88A
:103AB0000C9010980B910C9908801DA80B9901800F
:103AC0001CA90A701BAA13801AAA168019AA1570BD
:103AD00018AB1C7014AB00241C701E9B11AD2B8006
:103AE00013785B0816AD2B702B78DE080A90701CDB
:103AF00009900720034209980892079706910596B6
:103B000004940395029001D10598029002980899B7
:103B10000A78424312A802801C982038069A107036
:103B20000C980388039C25785D196D1E0A9E3788C2
:103B300008783818401EAAB280B20190184639465B
:103B4000019BFFF7A1FC13A804990180FFE713A8CC
:103B5000008812A90988884200DB9CE019A8007837
:103B60000C280CD1FFE71CA800780C2141434D48DC
:103B7000401813A90988405C17A9087023E019A808
:103B8000007810280BD1FFE71CA8007800014449F9
:103B9000081813A90988405C17A9087012E019A831
:103BA000007818280CD1FFE71CA800783021414389
:103BB0003A48401813A90988405C17A9087000E02A
:103BC00069E0FFE7FFE715A800210170FFE715A8EE
:103BD0000078072859DCFFE718A80078002826D1CC
:103BE000FFE717A8007815A9097801228A4010423A
:103BF00005D0FFE71BA8008800F088FF04E01AA8A2
:103C0000008800F083FFFFE71498401C14A9087097
:103C1000087816A90978B0FBF1F25143401A002840
:103C200004D1FFE714A8002101702EE027E017A8B7
:103C3000007815A9097801228A40104209D0FFE7CF
:103C40001BA802881DA801881EA80088FFF75BFD3D
:103C5000FFE71E98401C1EA90880088811A9098842
:103C6000401A16A90978884208D1FFE711981EA9C1
:103C700008801D98401C1DA9088006E0FFE7FFE7AB
:103C80001598401C15A90870A1E7FFE71398401C80
:103C900013A908805BE71FB0F0BDC04604AB000865
:103CA00014A50008A0A00008F0B591B0189C179DBD
:103CB000169E1F46099010460890084607900998DE
:103CC000069010A8059009980491059908800FA9FD
:103CD000049808800E920DA90B800CA90E800BA9E8
:103CE0000D700AA90C700397FFE70E980078002862
:103CF00057D0FFE70BA800780C2814D1FFE70E9AE5
:103D00000DA803880FA8018810A800880CAC24888F
:103D10000BAD2D780AAE36786F46BE607D603C6094
:103D200000F042F833E00BA80078102814D1FFE728
:103D30000E9A0DA803880FA8018810A800880CAC63
:103D400024880BAD2D780AAE36786F46BE607D6054
:103D50003C6000F035F919E00BA80078182814D160
:103D6000FFE70E9A0DA803880FA8018810A8008805
:103D70000CAC24880BAD2D780AAE36786F46BE6049
:103D80007D603C6000F028FAFFE7FFE7FFE70E9850
:103D9000801C0E900BA800781099081810A90880B4
:103DA000A3E711B0F0BD0000F0B59FB0269C259DA3
:103DB000249E1F46109010460F9008460E901098B3
:103DC0000D901EA80C9010980B910C9908801DA9BD
:103DD0000B9808801C921BA90B801AA90E8019A9A8
:103DE0000D7018AA147017AA0023137016AA137066
:103DF00015AA137014AA138013AC238012AD2B8064
:103E00001E9E11A806800878C1084E1C0A90072043
:103E100009900A9808910999084207940695059710
:103E200004930392029601D10898029002980A998D
:103E30004143069801800D21079A11800499039B44
:103E40001980FFE714A8008813A90988884200DBBD
:103E5000B1E014A800881A2141435848405C1C99DD
:103E60000978884200D0A0E014A800881A214143B4
:103E70005248401840781C994978884200D094E014
:103E80001EA8008819A909784218521E1DAB1B886C
:103E90005918491E92B289B201911946019BFFF748
:103EA000F3FA17A800210170FFE717A8007812A9FC
:103EB0000988884278DAFFE716A800210170FFE739
:103EC00016A80078072869DCFFE718A80078002802
:103ED0002ED1FFE714A800881A2141433748401823
:103EE00017A909784018807816A9097801228A4014
:103EF000104205D0FFE71BA8008800F007FE04E091
:103F00001AA8008800F002FEFFE71598401C15A9CA
:103F10000870087819A90978B0FBF1F25143401AEA
:103F2000002804D1FFE715A80021017036E02FE03A
:103F300014A800881A2141432048401817A909787D
:103F40004018807816A9097801228A40104209D0C9
:103F5000FFE71BA802881DA801881EA80088FFF79C
:103F6000D2FBFFE71E98401C1EA90880088811A9F3
:103F70000988401A19A90978884208D1FFE71198E1
:103F80001EA908801D98401C1DA9088006E0FFE7B7
:103F9000FFE71698401C16A9087091E7FFE71798ED
:103FA000401C17A9087080E7FFE7FFE71498401C42
:103FB00014A9088046E71FB0F0BDC0460BBE00083C
:103FC000F0B59FB0269C259D249E1F46109010465C
:103FD0000F9008460E9010980D901EA80C90109807
:103FE0000B910C9908801DA90B9808801C921BA9A5
:103FF0000B801AA90E8019A90D7018AA147017AA9F
:104000000023137016AA137015AA137014AA138034
:1040100013AC238012AD2B801E9E11A80680087859
:10402000C1084E1C0A90072009900A980891099926
:10403000084207940695059704930392029601D1CE
:104040000898029002980A99414306980180092134
:10405000079A11800499039B1980FFE714A8008830
:1040600013A90988884200DBB1E014A80088222146
:1040700041435848405C1C990978884200D0A0E030
:1040800014A80088222141435248401840781C99C6
:104090004978884200D094E01EA8008819A90978C0
:1040A0004218521E1DAB1B885918491E92B289B284
:1040B00001911946019BFFF7E7F917A8002101704C
:1040C000FFE717A8007812A90988884278DAFFE785
:1040D00016A800210170FFE716A80078072869DC00
:1040E000FFE718A8007800282ED1FFE714A8008861
:1040F000222141433748401817A909784018807891
:1041000016A9097801228A40104205D0FFE71BA8B2
:10411000008800F0FBFC04E01AA8008800F0F6FC20
:10412000FFE71598401C15A90870087819A90978A7
:10413000B0FBF1F25143401A002804D1FFE715A863
:104140000021017036E02FE014A8008822214143AD
:104150002048401817A909784018807816A90978CE
:1041600001228A40104209D0FFE71BA802881DA83F
:1041700001881EA80088FFF7C6FAFFE71E98401CBA
:104180001EA90880088811A90988401A19A9097868
:10419000884208D1FFE711981EA908801D98401C8D
:1041A0001DA9088006E0FFE7FFE71698401C16A946
:1041B000087091E7FFE71798401C17A9087080E77F
:1041C000FFE7FFE71498401C14A9088046E71FB0DA
:1041D000F0BDC0465DBF0008F0B59FB0269C259D90
:1041E000249E1F46109010460F9008460E9010987F
:1041F0000D901EA80C9010980B910C9908801DA989
:104200000B9808801C921BA90B801AA90E8019A973
:104210000D7018AA147017AA0023137016AA137031
:1042200015AA137014AA138013AC238012AD2B802F
:104230001E9E11A806800878C1084E1C0A9007200F
:1042400009900A98089109990842079406950597DC
:1042500004930392029601D10898029002980A9959
:104260004143069801800521079A11800499039B18
:104270001980FFE714A8008813A90988884200DB89
:10428000B1E014A800884A2141435848405C1C9979
:104290000978884200D0A0E014A800884A21414350
:1042A0005248401840781C994978884200D094E0E0
:1042B0001EA8008819A909784218521E1DAB1B8838
:1042C0005918491E92B289B201911946019BFFF714
:1042D000DBF817A800210170FFE717A8007812A9E2
:1042E0000988884278DAFFE716A800210170FFE705
:1042F00016A80078072869DCFFE718A800780028CE
:104300002ED1FFE714A800884A21414337484018BE
:1043100017A909784018807816A9097801228A40DF
:10432000104205D0FFE71BA8008800F0EFFB04E077
:104330001AA8008800F0EAFBFFE71598401C15A9B1
:104340000870087819A90978B0FBF1F25143401AB6
:10435000002804D1FFE715A80021017036E02FE006
:1043600014A800884A2141432048401817A9097819
:104370004018807816A9097801228A40104209D095
:10438000FFE71BA802881DA801881EA80088FFF768
:10439000BAF9FFE71E98401C1EA90880088811A9D9
:1043A0000988401A19A90978884208D1FFE71198AD
:1043B0001EA908801D98401C1DA9088006E0FFE783
:1043C000FFE71698401C16A9087091E7FFE71798B9
:1043D000401C17A9087080E7FFE7FFE71498401C0E
:1043E00014A9088046E71FB0F0BDC0468FC0000882
:1043F000F0B597B01E9C1D9D1C9E1F460F90104649
:104400000E9008460D900F980C9016A80B900F98E0
:104410000A910B99088015A90A980880149213A98B
:104420000B8012A90E8011A90D7010A90C700997AC
:10443000FFE714980078002828D0FFE7149813A904
:104440000B88027815A8018816A8048812AD2D885B
:1044500011AE3778089010A800780790684606904B
:1044600007980591069988604F600D602046059970
:104470000496FFF70FFB049801784908169A511823
:10448000089A11801499491C1491D2E717B0F0BD15
:1044900010B5ACB001462B9000202A9029902890AE
:1044A000279026902590249023902B9A5269229051
:1044B00010462191FCF78AF99F4A23AB20901846B9
:1044C0001F911146209A1F9C1E93234604F040FC26
:1044D0006946229A8A6010234B6040F2E0730B60B9
:1044E00005216A231D90084619461E9A229BFFF754
:1044F0007FFF22982A902990289027902690259037
:10450000249023902B9908698C49FCF76BF80028BC
:1045100030D1FFE72B9800698849FBF785FEFCF74F
:1045200055F9884A23AB1C9018461B9111461C9ADA
:104530001B9C1A93234604F00BFC694600228A60F8
:1045400010234B6040F2E0730B6037216A2319900F
:10455000084619461A9B18921A46189BFFF748FFFF
:1045600018982A902990289027902690259024909A
:1045700023902CE02B980069FCF728F9704A23ABB4
:104580001790184616911146179A169C15932346B4
:1045900004F0DEFB694600228A6010234B6040F283
:1045A000E0730B6037216A23149008461946159B67
:1045B00013921A46139BFFF71BFF13982A9029901A
:1045C000289027902690259024902390FFE72B9801
:1045D0008078012810D1FFE7684600218160102211
:1045E0004260594A02605A4A7620242312911946A1
:1045F000129BFFF759FB0FE06846002181601022F3
:104600004260514A0260514A762024231191194692
:10461000119BFFF749FBFFE72B98808840F2E831B8
:10462000884227DBFFE72B98808840F2E831B0FB17
:10463000F1F2494923A8109004F08AFB6946002250
:104640008A6010234B60404B0B606E2148230F9013
:1046500008461946109B0E921A460E9BFFF7C8FE9D
:104660000E982A90299028902790269025902490A3
:10467000239022E02B988288364923A80D9004F0DD
:1046800067FB694600228A6010234B602E4B0B604B
:104690006E2148230C90084619460D9B0B921A4632
:1046A0000B9BFFF7A5FE0B982A9029902890279046
:1046B0002690259024902390FFE72B98C088FBF745
:1046C000EFFF2B99C9680A900846FBF7F4FF0A9997
:1046D000099008460999FBF7A7FD2049FBF767FDFC
:1046E000FCF774F81E4A23AB089018460791114650
:1046F000089A079C0693234604F02AFB6946002289
:104700008A6010234B60F74B0B606E216A23059083
:1047100008461946069B04921A46049BFFF768FE5A
:1047200004982A90299028902790269025902490EC
:1047300023902CB010BDC0468EBD000800007A4406
:1047400096BD0008A6BD0008E0FF0000E6BD000819
:10475000B6BD0008AFBD00089FBD00080000C842FC
:104760007DBD000880B58EB000200D900C900B90A0
:104770000A900990089007900690104906AA0590A3
:104780001046049204F0E4FA6946059A8A60102300
:104790004B600B4B0B600A2103901046049A059B5B
:1047A000FFF726FE05980D900C900B900A9009904B
:1047B0000890079006900EB080BDC046F6BD000878
:1047C0007C7D0000B0B5A4B023A80021018022AAFE
:1047D0001180219120911F911E911D911C911B917F
:1047E0001A916A4691601023536040F2E07414609D
:1047F000BA4A0A24199020461891189C1793234608
:10480000FFF752FAB6491AA8169004F0A1FA6946C1
:10481000189A8A60179B4B60B24C0C606E21159001
:10482000084614911146169A189B1394FFF7E0FD61
:104830001898219020901F901E901D901C901B9006
:104840001A90694688600C224A60A74B0B60A74902
:104850001424A74D149812912146129C11922246BD
:1048600010932B460F95FFF71FFAA24816990E904A
:1048700008460E9904F06CFA6946189A8A60179BEC
:104880004B60139C0C602421149D0D902846169AB1
:10489000189BFFF7ADFD1898219020901F901E9057
:1048A0001D901C901B901A9069468860119A4A606E
:1048B000109B0B60904A382114980F9BFFF7F4F976
:1048C00016980E9904F044FA6946189A8A60179B64
:1048D0004B60139C0C604821149D0C902846169A3E
:1048E000189BFFF785FD1898219020901F901E902F
:1048F0001D901C901B901A908049169804F028FA7D
:104900006946189A8A60119B4B60109C0C605C2170
:10491000149D0B9028460A91169A0F9BFFF768FD8D
:104920001898219020901F901E901D901C901B9015
:104930001A9069468860119A4A60109B0B60704A11
:1049400076200A990F9BFFF7AFF916980E9904F09D
:10495000FFF96946189A8A60179B4B60139C0C609C
:104960006A21149D09902846169A189BFFF740FD6E
:104970001898219020901F901E901D901C901B90C5
:104980001A9069468860119A4A60109B0B605D4AD4
:1049900005200A990F9BFFF787F9684618998160EF
:1049A000119A4260109B0360574A37200A990F9B67
:1049B000FFF77AF9189819990880FFE723A800886B
:1049C00080280CDCFFE723A801886A20454AFEF70F
:1049D0009AFEFFE72398801C23A90880EEE723A80E
:1049E00000210180FFE723A8008863280DDCFFE792
:1049F00023A80088512140F2CF12FEF784FEFFE782
:104A00002398401C23A90880EDE723A81E210180DC
:104A1000FFE723A8008850280DDCFFE723A80188C2
:104A2000002040F2CF12FEF76EFEFFE72398401CF5
:104A300023A90880EDE723A800210180FFE723A830
:104A4000008809281FDCFFE723980A210A46424311
:104A5000901C80B2522240F2CF1308911146079267
:104A60001A460693FEF74FFE239808994143C81C47
:104A700080B20799069AFEF746FEFFE72398401C8E
:104A800023A90880DBE723A800210180FFE723A8F2
:104A9000008809281FDCFFE723980A210A464243C1
:104AA000901C80B2532240F2CF130591114604921C
:104AB0001A460393FEF727FE239805994143C81C25
:104AC00080B20499039AFEF71EFEFFE72398401C6C
:104AD00023A90880DBE724B0B0BDC046EBBD0008C9
:104AE00087BD0008E0FF00000F780000BBBD000894
:104AF000FFFF000076BD0008DDBD000874BD0008A2
:104B0000CDBD0008C4BD0008D4BD000880B586B086
:104B1000014605AA10803948802304900391194664
:104B20000292019301F08DFF02980088FEF77EFB50
:104B30000498019901F091FF06B080BD80B586B060
:104B4000014605AA10702D48802304900391194650
:104B50000292019301F075FF02980078FEF750FB76
:104B60000498019901F079FF06B080BD80B586B048
:104B7000014605AA1070214840230490039119466C
:104B80000292019301F05DFF802004990090084695
:104B9000009901F056FF02980078FEF731FB049867
:104BA000019901F05AFF0498009901F056FF06B0F0
:104BB00080BDC04680B586B0014605AA10800F486A
:104BC00040230490039119460292019301F039FFAA
:104BD0008020049900900846009901F032FF029865
:104BE0000088FEF723FB0498019901F036FF049832
:104BF000009901F032FF06B080BDC04600040048B5
:104C000080B582B03248022103F087FE01285CD1D2
:104C1000FFE73048008800280AD1FFE72C48002130
:104C200003F068F92D4908802A480121018047E0F6
:104C300028480088012842D1FFE72548002103F0D9
:104C400059F925490880088824490988884208DDDF
:104C5000FFE72148008821490988401A2149086056
:104C600009E01E4800881E49081A1B490988401897
:104C70001C490860FFE71B480068FBF71CFD1A4948
:104C8000019008460199FBF7CFFA184908600868B7
:104C90001749FBF7A7FC002805D1FFE71348006878
:104CA00014490861FFE70D48002101800D480160AB
:104CB0000E4801600848018006480180FFE7FFE7D1
:104CC0000348022103F01CFEFFE702B080BDC0468E
:104CD0000004004010040020C60D0020C40D002078
:104CE000FFFF0000140400200050C34738080020D4
:104CF0000000C842FC08002080B582B01248134969
:104D000003F076FF00281CD0FFE70F480F4903F09F
:104D10004BFF0220019001F049FD40F20011081AFA
:104D20000B4A10700B48012202700198009101F0AB
:104D3000AFFB0198009901F027FD019801F0B8FB45
:104D4000FFE702B080BDC046003801400400040700
:104D5000C90D0020C80D002080B582B00020019050
:104D6000FFE70198092832DCFFE71A48006940682C
:104D70000199405C002801D1FFE724E00020009069
:104D8000FFE70098072817DCFFE712480069406832
:104D90000199405C00990722511A01228A40104271
:104DA00005D0FFE70098019900F09EFAFFE7FFE7C2
:104DB0000098401C0090E4E70648006940680199AB
:104DC00000224254FFE70198401C0190C9E702B05D
:104DD00080BDC0463C08002082B0014601AA107088
:104DE000107840B2002800910EDBFFE701A80078A0
:104DF00040B21F2102460A4001219140C008034AE7
:104E00001040034A8150FFE702B07047FCFFFF1FCC
:104E100000E100E070B584B00A46034603AC2070A0
:104E20000291207840B200280193009218DBFFE73E
:104E300003A8017849B20322D3431940184C0959F9
:104E4000007840B205461540EA00FF259540A94389
:104E5000029DAD01EDB295402943184001511BE080
:104E600003A801780F22114008390323DC432140B5
:104E70000A4D4959007840B206461E40F300FF260D
:104E80009E40B143029EB601F6B29E4031431040AF
:104E9000083820404151FFE704B070BD1CED00E030
:104EA00000E400E0E2480168082211430160FFE7E6
:104EB000DF4800680821084201D0FFE7F8E7DC4836
:104EC0000168042211430160FFE7D948006804210A
:104ED000084201D0FFE7F8E77047C04610B585B03B
:104EE0000A46034604AC20700391207801280293FF
:104EF0000192009004D0FFE7009802280FD01DE037
:104F0000B64801680F221205914301600399090513
:104F10000D4BC918114002680A4302600FE00948AE
:104F20000168032212059143016003990905064BAC
:104F3000C918114002680A43026000E0FFE705B0AB
:104F400010BDC046382401400000F0FF82B0014689
:104F5000019001980028009107D0FFE7E14801681F
:104F600040F600021143016006E0DE48016840F6A9
:104F7000000291430160FFE702B07047D948016821
:104F800040F20012114301607047C046D5480068E6
:104F90000121084206D1FFE7D248016801221143EE
:104FA0000160FFE77047C04610B584B00A4603466B
:104FB00003AC207002A801700078002801920093D1
:104FC0001BD0FFE703A80078C007002807D0FFE741
:104FD000C44801680122120511430160FFE703A8DC
:104FE00000788007002807D5FFE7BE48016848F22F
:104FF000000211430160FFE71AE003A80078C00730
:10500000002807D0FFE7B748016801221205914345
:105010000160FFE703A800788007002807D5FFE7B5
:10502000B048016848F2000291430160FFE7FFE7E2
:1050300004B010BD10B585B00A46034604AC20701C
:1050400003912078012802930192009004D0FFE799
:10505000009802280BD015E0A248016807225204EC
:1050600091430160039902680A4302600BE09D4886
:10507000016847F2000291430160039902680A4304
:10508000026000E0FFE705B010BDC04670B588B013
:1050900013460C46054607AE307006A8017005920F
:1050A0003078052802940195009318D8FFE74D4801
:1050B0000168049107A90A7805231C4654431F225E
:1050C000A240049C9443049406AA127809784B43A6
:1050D0009A400499114304910499016040E007A8A3
:1050E00000780B281AD8FFE73D480168049107A90A
:1050F0000A7805231C4654431E3C1F22A240049CF0
:105100009443049406AA127809784B431E3B9A40B4
:105110000499114304910499016020E007A80078E4
:105120000F281AD8FFE72D480168049107A90A78CB
:1051300005231C4654433C3C1F22A240049C94433C
:10514000049406AA127809784B433C3B9A40049990
:10515000114304910499016000E0FFE7FFE7FFE7D6
:1051600006A80078092817D8FFE7204801680391AE
:1051700006A90A7803231C4654430722A240039C35
:1051800094430394059A09784B439A400399114339
:105190000391039901601FE006A80078122819D82E
:1051A000FFE711480168039106A90A7803231C460A
:1051B00054431E3C0722A240039C94430394059A47
:1051C00009784B431E3B9A4003991143039103997D
:1051D000016000E0FFE7FFE708B070BD2C2401404C
:1051E00030240140342401400C24014010240140AB
:1051F00082B0014601AA10701078C0070028009103
:1052000007D0FFE73748016801229205114301608A
:10521000FFE701A800788007002807D5FFE731489D
:1052200001680122520511430160FFE702B0704797
:105230000824014084B00A460346039002A8017086
:10524000007800280192009324D0FFE70398C0055E
:10525000002807D5FFE72248016840F200121143F9
:105260000160FFE703984005002807D5FFE71C48C9
:10527000016840F2004211430160FFE70398800794
:10528000002806D5FFE71748016802221143016094
:10529000FFE723E00398C005002807D5FFE7104883
:1052A000016840F2001291430160FFE70398400556
:1052B000002807D5FFE70A48016840F20042914301
:1052C0000160FFE703988007002806D5FFE705483F
:1052D0000168022291430160FFE7FFE704B07047D5
:1052E0000424014008240140F0B587B00A46034673
:1052F0000690059106980C21414303200C46044377
:10530000059806254543E81C0C3102263143083533
:105310006E4600273760A4B280B2ADB289B2049065
:105320002046049C03912146039E0292324601933B
:105330002B46FEF706FA07B0F0BD0000F0B5FFB04F
:10534000FFB08FB00B4604461546DA4F6F44396004
:10535000D94F6F443860D94F6F443A60D8480168DC
:105360000A684E680F694969E1900020E09038466C
:10537000E09FDF923A46DE933B46DD95DC94DB9678
:10538000FBF778F9CF49D04A00280846DA92D9913C
:10539000D89001D1DA98D890D898DF99D79008465C
:1053A000DB99E09AD79BFAF77DFFC84C6C442160EB
:1053B000C74C6C442060E19801688868CA688B69B2
:1053C000C969D6901846E09BD5921A46FBF752F968
:1053D0000028D998D49001D1DA98D490D498D6994D
:1053E000D3900846D599E09AD39BFAF75BFFB94E64
:1053F0006E443160B84E6E443060E19801680868D0
:105400004A680B694969AC4C6C442468A94D6D44E9
:105410002D68D2901846D191D0922246CF932B4638
:10542000FAF7F2FFD29ACE901046D09BCD91194652
:10543000CE9ACD9BFAF736FFCF9ACC901046D19BEF
:10544000CB911946E09AE09BFBF714F90028D99814
:10545000CA9001D1DA98CA90CA98CC99C9900846E6
:10546000CB99E09AC99BFAF71DFF9C4E6E443160C0
:105470009B4E6E443060E19801688868CA688B6909
:10548000C9698D4C6C4424688A4D6D442D68C89060
:105490001846C791C6922246C5932B46FAF7B4FF29
:1054A000C89AC4901046C69BC3911946C49AC39B20
:1054B000FAF7F8FEC59AC2901046C79BC1911946EB
:1054C000E09AE09BFBF7D6F80028D998C09001D16C
:1054D000DA98C090C098C299BF900846C199E09AE6
:1054E000BF9BFAF7DFFE7F4A6A4411607E49694438
:1054F0000860784868440068F99077486844006814
:10550000F890724868440068F790714868440068F1
:10551000F690744868440068FD90734868440068D9
:10552000FC906E4868440068FB906D4868440068D1
:10553000FA90E098FE90E1990A68012393620A6864
:105540009068D168694BE09AFBF768F8002808D1A9
:10555000FFE75B480121816165486844016000F014
:10556000B3FE6448ED900021EC91EF90EE91F19044
:10557000F0916148F390F2910220F490F6A8ECA922
:10558000E8AAE6AB01F09CFF00287CD0FFE7E89892
:10559000E9994B4A13681C695D690026BE90204654
:1055A000BD912946BC923246BB933346BA96FBF76F
:1055B00061F84549434A00280846B992B891B79026
:1055C00001D1B998B790B798BE99B6900846BD99E1
:1055D000BA9AB69BFAF766FEBB9A51601060EA98D9
:1055E000EB99BC9B1C68A569E669B5902846B49107
:1055F0003146BA9ABA9BB394FBF73CF80028B898A6
:10560000B29001D1B998B290B298B599B1900846CC
:10561000B499BA9AB19BFAF745FEB39AD1609060FB
:10562000BC9801680A694B690124E407BA98B091F3
:105630002146FAF7DBFEB09A516110611E486844BA
:1056400000681C4969440968E69AE79B294CBA9DA1
:10565000AF902846AE912146FAF7C8FEAF9AAD90BA
:105660001046AE9BAC911946AD9AAC9BFAF7CCFEB6
:10567000124A6A44126851601060BA981C49694421
:10568000086000F021FE1B48ED900021EC91EF90A6
:10569000EE911A4AF192F091F390F2910320F49076
:1056A000F6A8ECA9E8AAE6AB01F00AFF002827D18A
:1056B000A2E0C0462C0400002804000024040000DE
:1056C0003C0800200000F83F0000F8BF1404000070
:1056D000100400001C040000180400000404000072
:1056E000000400000C0400000804000000C0634037
:1056F000300400000000F03F00E0634000405940EB
:10570000E898E999F04A13681C695D690026AB9036
:105710002046AA912946A9923246A8933346A796D5
:10572000FAF7A8FFE949EA4A00280846A692A59197
:10573000A49001D1A698A490A498AB99A3900846F0
:10574000AA99A79AA39BFAF7ADFDA89A5160106099
:10575000EA98EB99A99B1C68A569E669A29028467E
:10576000A1913146A79AA79BA094FAF783FF00283E
:10577000A5989F9001D1A6989F909F98A2999E90DE
:105780000846A199A79A9E9BFAF78CFDA09AD16032
:105790009060A99801688A69CB690124E407A798F9
:1057A0009D912146FAF722FE9D9AD1619061C948E8
:1057B00068440068C84969440968E69AE79BC74C91
:1057C000A79D9C9028469B912146FAF70FFE9C9A34
:1057D0009A9010469B9B999119469A9A999BFAF731
:1057E00013FEBF4A6A44126851601060A798BD4911
:1057F0006944086000F068FDBB48ED900021EC9121
:10580000B64AEF92EE91F190F091B848F390F29190
:105810000420F490F6A8ECA9E8AAE6AB01F050FE4B
:10582000002800D193E0E898E999A74A13681C6919
:105830005D690026989020469791294696923246B7
:10584000959333469496FAF715FFA049A04A00288D
:10585000084693929291919001D19398919091984A
:105860009899909008469799949A909BFAF71AFD08
:10587000959A51601060EA98EB99969B1C68A5690F
:10588000E6698F9028468E913146949A949B8D9428
:10589000FAF7F0FE002892988C9001D193988C90A2
:1058A0008C988F998B9008468E99949A8B9BFAF7D7
:1058B000F9FC8D9AD16090608648684400688649FA
:1058C00069440968E69AE79B844C949D8A9028462F
:1058D00089912146FAF78AFD8A9A88901046899B19
:1058E00087911946889A879BFAF78EFD7C4A6A440D
:1058F000126851601060F498022804D0FFE7F49811
:1059000004280FD1FFE7704800680269436901214C
:10591000C907002486902046FAF768FD869A5161EF
:1059200010610EE0684800688269C3690121C907F7
:10593000002485902046FAF759FD859AD16190613F
:10594000FFE7002067496944086000F0BDFC5E483D
:1059500041680A684968ED91EC9241688A68C968B3
:10596000EF91EE9241680A6849680023604C849088
:1059700010461A462346FAF795FCF191F090849868
:1059800041688A68C968F391F2920121F491F6A8FE
:10599000ECA9E8AAE6AB01F093FD002800D1A9E04C
:1059A000E898E999484A13681C695D690026839064
:1059B00020468291294681923246809333467F96D3
:1059C000FAF758FE4149424A002808467E927D91E6
:1059D0007C9001D17E987C907C9883997B9008463E
:1059E00082997F9A7B9BFAF75DFC809A51601060E8
:1059F000EA98EB99819B1C68A569E6697A9028462C
:105A0000799131467F9A7F9B7894FAF733FE00288C
:105A10007D98779001D17E98779077987A99769053
:105A2000084679997F9A769BFAF73CFC789AD16080
:105A30009060284868440068274969440968E69AE4
:105A4000E79B264C7F9D7590284674912146FAF776
:105A5000CDFC759A73901046749B72911946739A97
:105A6000729BFAF7D1FC1E4A6A44126851601060BA
:105A7000F498022804D0FFE7F49804280FD1FFE738
:105A800011480068026943690121C9070024719027
:105A90002046FAF7ABFC719A516110610EE00A489A
:105AA00000688269C3690121C907002470902046FB
:105AB000FAF79CFC709AD1619061FFE700200949D8
:105AC0006944086000F000FC3C0800200000F8BFBA
:105AD0000000F83F280400002C0400000000F03F04
