:020000040800F2
:10000000480D0020E100000885140008850C000858
:1000100000000000000000000000000000000000E0
:10002000000000000000000000000000E5140008CF
:1000300000000000000000008714000829150008D7
:10004000F3000008F3000008F3000008F3000008C4
:10005000F3000008F3000008F3000008BD0A0008E0
:10006000000000008D0A0008F3000008F3000008FB
:10007000F3000008F3000008F3000008000000008F
:100080004D2C0008F300000800000000F3000008F9
:10009000F3000008F3000008F3000008F300000874
:1000A000F3000008F3000008F3000008F300000864
:1000B000F300000800000000000000000000000045
:1000C000F300000800000000F30000080348854624
:1000D00000F0DEFB00480047B93A0008480D002058
:1000E0000448804704480047FEE7FEE7FEE7FEE7D6
:1000F000FEE7FEE72D150008CD000008F8B5024622
:100100004A40D40F42004B0052085B089A4202D288
:100110000246084611464A0023D0C30D4A00DDB20C
:10012000120EAD1A202D35DA49020126490AF605CC
:100130008A19002C00D0524220214F1B1146B94091
:100140002A411018C20D9A4221D0002C17D0012D3F
:1001500008DCDA05801AD20F8019D207DBB200F072
:1001600098F9F8BDDA05801A012340001B06C01873
:1001700080185A428018CA0F1043490007E0490806
:10018000C2071143DA05801A80194008801800F070
:1001900078F9F8BD61000122511A001BF7E701222E
:1001A000D2075140AAE70122D2075040A6E70246F3
:1001B00070B54A40D30FDB0740002DD04A002AD04B
:1001C000010E140E000212020919400A520A841884
:1001D000E50104465443000A120A2E045043A419B0
:1001E0004219200CC543AA18120C0125AD03521C5C
:1001F000521912047F39240400D0521C104301D438
:100200004000491EC2B20C06C0092018401C40081C
:10021000802A02D003E0002070BD40084000002981
:1002200000DA0020184370BD70B502464A40D50F71
:1002300040004A00ED0740085208002814D0002A68
:1002400012D0C40DD30D41020120C0055202490A4B
:10025000520AE41A091812187D34914201D3641C21
:1002600000E04900002C01DA002070BD002391421B
:1002700001D3891A0343400849000028F7D1002917
:100280000AD0914202D10121C90705E0914201D271
:10029000012101E00121C943E005C018401900F027
:1002A000F0F870BD0122D207002800DB101A0029E7
:1002B00000DB511A814201D80120704700207047AD
:1002C0000122D207002800DB101A002900DB511A96
:1002D000814201D201207047002070470122D207DD
:1002E000002800DB101A002900DB511A814201D3DB
:1002F000012070470020704710B5002904DB0C4630
:100300000121C9074042A141002B04DB1C46012307
:10031000DB075242A341801A994101D3012010BD4D
:10032000002010BD10B5002904DB0C460121C907CF
:100330004042A141002B04DB1C460123DB07524253
:10034000A341801A994101D2012010BD002010BDA7
:10035000C217C10F504010B54018CA07962300219C
:1003600000F097F810BD10B500229623114600F05A
:1003700090F810BDC20F410040020123400ADB0586
:10038000D207090EC0187F2901DA0020704796298C
:1003900003DC9623591AC84001E096398840002AA8
:1003A000F4D040427047410040020122400AD20589
:1003B000090E80187F2901DA00207047962903DC96
:1003C0009622511AC8407047963988407047C20F2C
:1003D000D207400040080BD0C10D0723DB01C9182C
:1003E00040020905400A1143C20840071143704703
:1003F00000200146704730B50B4601460020202200
:10040000012409E00D46D5409D4205D31D46954087
:10041000491B2546954040191546521E002DF1DC1A
:1004200030BDF0B51FB40646002082B0054640241A
:10043000019100901BE0019922460F46304600F0E2
:1004400049FA049A059B801A994110D3104619461F
:10045000224600F02FFA361A8F41019722460120DA
:100460000021009F00F026FA38184D4100902046E8
:10047000641E0028DFDC019B00982946324607B045
:10048000F0BD002904DA401C490001D140084000B9
:10049000704770B40024050C05D11024000402D16B
:1004A000002921D01124050E01D100020834050FC6
:1004B00001D10001241D850F01D18000A41C00285A
:1004C00001DB4000641C002908D020252E1B0D46AE
:1004D000F540A14000D001212943084301061B1B20
:1004E000000ADB1D02D5002070BC7047DB05181820
:1004F00080180029F8DA401C4900F5D170BC40088A
:1005000040007047F0B507460846584087B0C00F16
:10051000049048000E46590040084908BC1A88411A
:1005200005D2384631461E4617460B46024658004D
:10053000400810434CD0300D039040055900400D49
:10054000490D0590401A0290402872DA18030121E3
:10055000000B09050843019004980092002805D07B
:100560000199524200208841009201900298402156
:100570000A1A0199009800F09DF905460C466B4651
:1005800007CB00F0B8F9C0197141039A0E0D002392
:10059000D71756401A467A40164344D0049A002A88
:1005A0002DD0029A012A039A15DC1205C01A914136
:1005B00001263605001C7141D20F059ED20700931B
:1005C000019202962A46234600F0B5F907B0F0BD25
:1005D00038463146FAE71605224A0F46B218C01AC5
:1005E000B74101210905001C4F4100187F41114608
:1005F00018187941E20F10436D19644113E0E207C6
:100600006D0815436408C2071443039A01261205B6
:10061000C01A91413605001C7141CE074008304395
:100620004908C01851412A46234600F077F9CDE722
:10063000FFE7049801224000C117121A00238B41E2
:1006400004983146C417381AA141EEE730B40124AA
:10065000E407634030BC55E730B40124E40761404F
:1006600030BC4FE70000E0FFF0B51FB488B00B9935
:100670000998002448400999C00F49004908099188
:10068000C0070B990090490049080B9109990898F7
:10069000A64608431CD00B990A98084318D009981D
:1006A00001244000420D4800410D09982405000333
:1006B000000B204309900B980003000B20430B9084
:1006C00050181C494018002201901446104605E0BD
:1006D000002001460DB0F0BD032801DA034600E01A
:1006E00003239C46C11A0AAE0AE05F0008ADED5B29
:1006F0004F00F75B7D430027AA187C41491C5B1E15
:100700006145F2DD410004AB5A522104120C0A4348
:10071000240C401C0828DFDB0198029000997046E9
:1007200001910090059B049A0799069800F003F93F
:10073000D0E700000DFCFFFFF0B50C465C4085B033
:10074000E40FE40703944C00002664085900944623
:10075000490802460296224321D062460A431ED02F
:100760006200570D4A000E032303550D0124024673
:100770002C492405781B1B0B360B401823432643BA
:10078000614600901C46501AB44103D30098401CA7
:10079000009002E0921800985B41002803DA0020E4
:1007A000014605B0F0BD0020012109050746864637
:1007B00011E064461D46141BB54106D36546521B25
:1007C000B341744607430C43A646CD074008490889
:1007D000284392185B4105460D43EAD11046184361
:1007E00013D06046194650407140084306D0604619
:1007F000101AB34106D20122002306E00022012391
:10080000DB0702E00122D243531000987446010531
:10081000381C6141029C039D0019694100F07EF87B
:10082000BFE70000FD0300004A0009030123090B94
:100830001B0519430A4B10B5520D9A4202DA0020EB
:10084000014610BD064B34339A4203DC9A1A00F07D
:1008500041F810BD034BD21800F02CF810BD000079
:10086000FF030000CDFBFFFF10B5002904DB0124CE
:10087000E40740428C412146002B04DB1C46012347
:10088000DB075242A341994200D1904210BD0000C3
:10089000064C0125064E05E0E36807CC2B430C3CD3
:1008A00098471034B442F7D3FFF714FCBC7E00081D
:1008B000DC7E000810B5202A04DB0146203A914076
:1008C000002010BD914020239C1A0346E3401943A9
:1008D000904010BD10B5202A04DB0846203AD040D5
:1008E000002110BD0B46D340D0402024A21A9140D5
:1008F0000843194610BD10B5202A06DBCB17084661
:10090000203A1041C1170B4306E00B461341D0407B
:100910002024A21A91400843194610BD10B5002B9F
:1009200008DA0024401C614192185B411A4301D14E
:100930004008400010BDF0B51FB482B005460C0061
:1009400003D0084604F0D2FD02E004F0CFFD2030D1
:100950000246009021462846FFF7ACFF049B059A0B
:1009600004460F4618431143084314D01846104359
:100970001BD0009840210A1A18460599FFF7AAFFD4
:1009800005460E46009A05990498FFF793FF084321
:1009900005D0012004E02046394607B0F0BD002014
:1009A000C11705430E432C43374300990E98630546
:1009B000401A7905E40A00220C43FD0A0A3002D5E8
:1009C00000200146E9E70105101969410C9C0D9DC5
:1009D00000196941FFF7A2FFDFE7000080B58AB088
:1009E00040F2005003F03AFC09200021029103F08C
:1009F000BFF9029802F0A2FC1348039003A80299E1
:100A000001769F4A05920122427640F2001204923A
:100A100040F200420692817640F22C12079242F296
:100A20000002089201900846019902F0B3FC029876
:100A300002F074FC029802F061FC0221029802F0BC
:100A400037FD0AB080BDC0464C24014080B584B05B
:100A5000014603AA1070107801280291019004D079
:100A6000FFE70198022806D00BE0074844F2000196
:100A700002F05DFF06E0044848F2000102F057FF73
:100A800000E0FFE704B080BD0008004880B582B0F8
:100A90000020022102F036FD00280DD0FFE7674854
:100AA0000121017000200190009102F017FC0198D3
:100AB000009902F011FDFFE702B080BD80B5102063
:100AC00002F0A8FE002847D0FFE7A748082102F05F
:100AD0003AFF00281ED1FFE7052002F0BBFB564875
:100AE00000210170F948082102F02DFF002810D1E3
:100AF000FFE750480178491C01700078022807DBA5
:100B0000FFE74C48002101704C4806214170FFE787
:100B1000FFE71DE0052002F09DFB46480021017023
:100B2000EA48082102F00FFF012810D1FFE74248F0
:100B30000178491C01700078022807DBFFE73E4876
:100B4000002101703D4805214170FFE7FFE7FFE705
:100B5000102002F055FEFFE740F2002002F05AFE9E
:100B6000002814D0FFE7052002F074FBD74840F2BC
:100B7000002102F0E8FE002804D1FFE72F480421FD
:100B80004170FFE740F2002002F03AFEFFE742F238
:100B9000000002F03FFE002814D0FFE7052002F01D
:100BA00059FBCA4842F2000102F0CDFE002804D1F0
:100BB000FFE7224801214170FFE742F2000002F006
:100BC0001FFEFFE744F2000002F024FE002814D0CC
:100BD000FFE7052002F03EFBBC4844F2000102F0B2
:100BE000B2FE002804D1FFE7144802214170FFE75C
:100BF00044F2000002F004FEFFE748F2000002F0B9
:100C000009FE002814D0FFE7052002F023FBAF48BF
:100C100048F2000102F097FE002804D1FFE70748E0
:100C200003214170FFE748F2000002F0E9FDFFE711
:100C300080BDC04609000020080000207802002086
:100C400083B0014602AA108001A800230380108807
:100C500040F22D129042009104D3FFE702A8002138
:100C60000180FFE702A801884900054A515A01ABFB
:100C700019800088400000211152188803B0704785
:100C80000A000020FFE7FEE780B586B0F44803F0D5
:100C9000E5FA224803F0E2FA0920059003F098F8FB
:100CA0000598C0060321002208230491039202F054
:100CB00063FE02200121029102F072FA40F200105C
:100CC000039902F06DFA40F20040039902F068FACD
:100CD000039802F0F1F80298029902F0B5F80720A3
:100CE0000399019008460499019A02F085F9019848
:100CF0004104029802F054F90298029902F00AF9AC
:100D000002F0FAF8029802F0A5FA02F081F802F077
:100D1000EBF8029802F022FA06B080BD0906000046
:100D200080B584B0684803F099FA40F2006003F09F
:100D300095FA664800210122102303910292019343
:100D400002F01AFE0720032103F012F80421029892
:100D500003F020FC01980399039A02F0D9FC019852
:100D600002F04EFD04B080BD0004004880B58EB096
:100D7000DF4803F073FA2A4803F070FA0920C0062E
:100D8000022100224023079006910592049302F06D
:100D9000F3FD032207980599049B02F03EFE012013
:100DA0000799039008460399049A02F04BFD10201E
:100DB000069902F0DDFF1B48029004F017F808A81E
:100DC000019004F05FFA184801990880059848805E
:100DD0008880164A0A92C880029804F091F80CA8FC
:100DE000009003F082FD059800990880039A4A80DC
:100DF0008880C88002980599009A04F003F9029847
:100E000003F0D6FC0298069904F0F0F902980699CE
:100E100004F0DDF9029804F068F80EB080BDC04619
:100E20000107000000040040CF020000FFFF0000A7
:100E300080B586B0244803F011FA2448002101222D
:100E4000234B0591049202F097FD0720032102F045
:100E50008FFF0921049803F09DFB0D21049803F0F6
:100E600099FB0E21049803F095FB0F21049803F0E1
:100E700091FB40F2002003900599049A02F048FC8F
:100E800042F2000002900599049A02F041FC44F2FB
:100E9000000001900599049A02F03AFC48F2000023
:100EA00000900599049A02F033FC039802F0A8FC24
:100EB000029802F0A5FC019802F0A2FC009802F052
:100EC0009FFC06B080BDC04612050000000400482B
:100ED00008E2000080B586B0174803F0BFF9174854
:100EE0000121002244F20003059004910392029331
:100EF00002F042FD48F2000005990190084604996D
:100F0000039A019B02F038FD0320059900900846E2
:100F10000399009A029B02F080FD05980399009ABC
:100F2000019B02F07AFD0498FFF790FD0220FFF785
:100F30008DFD06B080BDC0461305000000080048C6
:100F400010B582B00146019001980022027001980C
:100F500007238360019842700198827001980261B2
:100F6000019840F2E8338380019840F2F414C48081
:100F70000198C36001984261009102B010BD000069
:100F800010B594B00A46034613901291AC480A92E9
:100F9000099303F063F940F2106003F05FF9092050
:100FA000C0060221002204230890079106920593AF
:100FB00002F0E2FC032208980699059B02F02DFD41
:100FC00008980699059A02F03DFC2648049003F023
:100FD0000DFF0BA8039004F055F9472003990880F2
:100FE000069848808880139A0D92C88008730498E8
:100FF00003F086FF0FA8029003F0E5FE012002999E
:101000000880069A4A80079B8B800824CC8040F297
:1010100000140C8140F200244C81049C0190204675
:101020001146029A03F072FC129A0498069903F092
:1010300043FE70220498069903F0E8FD049806998F
:10104000069A03F06BFE049803F0B2FB0498019932
:1010500004F0FBF8049803F03DFF14B010BDC04647
:10106000110500000040014080B58EB0744803F0C7
:10107000F5F8424803F0F2F80920C0060021A0224A
:1010800006900591049202F0DDFB02210698059A74
:10109000049B02F071FC0320069903900846059911
:1010A000039A049B02F0B9FC3548029003F04CF916
:1010B00007A8019003F056FA4CF20000089040F2A5
:1010C0000410079040F20070099003980C9040F2D1
:1010D00000210A9105990D910B910298019903F055
:1010E000A1F902990090084603F0F6F80EB080BD11
:1010F0001105000080B58EB0514803F0AFF81F48CD
:1011000003F0ACF80920C0060021A022069005914A
:10111000049202F097FB02210698059A049B02F0C4
:101120002BFC03200699039008460599039A049B1B
:1011300002F073FCEA48029003F006F907A8019058
:1011400003F010FA4CF20000089040F204100790EF
:1011500040F60070099003980C9040F200210A912B
:1011600005990D910B910298019903F05BF9029991
:101170000090084603F0B0F80EB080BD0C060000E9
:101180000030014080B58AB0014609902C48089192
:1011900003F064F82B4803F061F80920C006012130
:1011A00040F2002207900691059202F04BFB40F2BC
:1011B00000400799049008460699049A02F042FB01
:1011C00002200799039008460399069A059B02F0AE
:1011D000D3FB00200799029008460299069A059BC6
:1011E00002F01BFC07980399069A049B02F0C4FBCB
:1011F00007980299069A049B02F00FFC124801908E
:1012000004F0B2F80198029904F041F901980299AA
:1012100004F00FF90198029904F0DDF8099901989A
:1012200004F046F80421019804F0EFF80821019831
:1012300004F019F9019804F0C3F80AB080BDC04663
:10124000110500000E0600000038014080B58CB08A
:1012500001460B900AA80022027009A802700892A9
:101260000B984078401E05280791069000D9FBE0B6
:101270000698810001A289188F46C04600F00AB87E
:1012800000F074B800F02DB800F0EDB800F082B8AE
:1012900000F0B5B80B98C068FFF765F87849FEF71D
:1012A00086FF0B99C98805900846FFF751F8059904
:1012B000049008460499FEF721FFFFF774F80B9994
:1012C000C8800B98C0880B99C968884204D9FFE789
:1012D0000B980021C180FFE70B98C08800F014F93B
:1012E000C3E00B98C088FFF733F80B99C9680390E7
:1012F0000846FFF738F80399029008460299FEF76E
:1013000093FF08900B98C068FFF72DF8012189071B
:10131000FEF78AFFFFF747F80B99C8600B98C06883
:10132000F92805D8FFE70B9840F2E831C160FFE7E4
:101330000B98C0685149B1FBF0F00B9988800B986D
:10134000C068FFF710F80899FEF731FFFFF72BF898
:101350000B99C8800B98C08800F0D6F80B98C0682D
:10136000401E00F0C1F8002008907EE00B988078C5
:10137000002807D1FFE70B9801218170694803F02D
:10138000B4FD06E00B9800218170664803F0A2FDD1
:10139000FFE76AE00B988068C01E0428019023D8FC
:1013A0000198810001A289188F46C04600F018B844
:1013B00000F012B800F00CB800F006B800F000B869
:1013C0000B980621816013E00B98052181600FE0E6
:1013D0000B98042181600BE00B980321816007E0EA
:1013E0000B980321816003E00B9807218160FFE7E0
:1013F0000B9882680020032101F0FEFD35E00B9878
:101400008068C01E0428009022D80098810001A2A4
:1014100089188F4600F018B800F012B800F00CB828
:1014200000F006B800F000B80B980721816013E0C7
:101430000B98072181600FE00B98062181600BE07B
:101440000B980521816007E00B980421816003E07F
:101450000B9807218160FFE70B9882680020032129
:1014600001F0CAFD01E000E0FFE70B9800214170A8
:101470000B9801F063F80CB080BDC04640420F00ED
:10148000CDCC4C3D7047704780B582B0014601AA73
:1014900010700091FFE71248022102F07BFF002844
:1014A00001D1FFE7F7E701A801780D4802F020FF1E
:1014B00002B080BD80B582B0014601AA10800091C3
:1014C000FFE70748022102F065FF002801D1FFE78E
:1014D000F7E701A80188024802F00AFF02B080BDC8
:1014E000003001407047000080B584B00146039091
:1014F00003A800880B4A02901046029A01911146F7
:1015000003F061F904B080BD80B582B0014601AA44
:1015100010801288034800230091194603F0CCFB89
:1015200002B080BD004001407047000080B584B02B
:1015300034480168012211430160FFE73148006827
:101540000221084201D1FFE7F8E7FFE72E480168D2
:1015500080221143016000200390FFE703987F2859
:1015600005D8FFE7FFE70398401C0390F6E72648FD
:10157000016890221143016000200390FFE7039867
:101580007F2805D8FFE7FFE70398401C0390F6E7A4
:10159000FFE71D48016803229143016019490A6869
:1015A0001A4B1A400A600168194A1140016001682B
:1015B000184A11400160184801680F2291430160E8
:1015C0001648016840F2031291430160016801224C
:1015D0001304994301600168D307994301601048DF
:1015E0000168914301600F4800210160029201915E
:1015F00003F0A2F80298C006019902F0D1FB04B0F2
:1016000080BDC0460010024004100240FFFFF2FE01
:101610000C00FF08FFFFC2772C1002403010024080
:101620003410024008100240F0B58FB01C46154639
:101630000E4607460A900EA809900A980891099943
:1016400008800DA8089901800CA90A800BAA1380B4
:101650002A23079018460692059704910396029450
:10166000019501F0CDFA0998008801F075FA049807
:10167000008801F071FA2B2001F0C2FA0798008867
:1016800001F06AFA0698008801F066FA2C2001F051
:10169000B7FA0FB0F0BDF0B597B01C9C1D461646CA
:1016A0000F460790069016A8059007980491059993
:1016B000088015A80499018014A90A8013AA138030
:1016C00012AB1C8011AB00241C8010940F940E945C
:1016D0000D940C940B940A94099408940988059B22
:1016E0001C88091B0E9111880288891A0D9119888E
:1016F0000991008808900E98012803970295019699
:1017000003DBFFE701200B900EE00E98002803D1C9
:10171000FFE700200B9006E00020C0430B900E98DE
:1017200040420E90FFE7FFE70D98012803DBFFE73B
:1017300001200A900EE00D98002803D1FFE7002059
:101740000A9006E00020C0430A900D9840420D9098
:10175000FFE7FFE70E980D99884203DDFFE70E983B
:101760000C9002E00D980C90FFE711A80021018079
:10177000FFE711A800880C99491C884232DAFFE77C
:1017800012A8028808A8018809A8008800F02CF88F
:101790000E981099081810900D980F9908180F902E
:1017A00010980C99884209DDFFE70C981099081AE7
:1017B00010900B98099908180990FFE70F980C9959
:1017C000884209DDFFE70C980F99081A0F900A98D4
:1017D000089908180890FFE7FFE71198401C11A925
:1017E0000880C6E717B0F0BD70B588B013460C4648
:1017F000054607AE308006A8018005A90A8000884A
:10180000328804901046049E039131460293334679
:1018100001950094FFF708FF0398008801F09CF9F8
:1018200008B070BDF0B591B0169C1D4616460F4627
:101830000990089010A807900998069107990880C8
:101840000FA8069901800EA90A800DA90B800CA98A
:101850000C800BA900220A800AAB1A800E9A521E35
:101860000D9B5B1E0088079C248892B29BB205905A
:101870002046059C04912146039502970196FFF7A7
:10188000D3FE0F9804990880FFE70BA800880DA9E4
:10189000098888421BDAFFE710980AA90880FFE749
:1018A0000AA800880EA9098888420ADAFFE70CA86E
:1018B000008801F051F9FFE70A98401C0AA9088046
:1018C000EEE7FFE70B98401C0BA90880DDE711B09D
:1018D000F0BD000080B584B00C4802F0BFFC974812
:1018E0000121002240F2E01303900292019302F0E2
:1018F00043F8032203980299019B02F08EF80398A3
:10190000019902F014F804B080BDC0461205000031
:1019100080B596B0FFF7DEFFFFF7A6FB87482021D2
:101920001590149101F0F7FF6420139001F092FCE0
:101930001598149901F0FBFF139801F08BFC40F20D
:101940000011159801F0F3FF139801F083FC1120AA
:1019500001F032F9782001F07DFCB12001F02CF982
:101960000520129001F010F93C20119001F00CF9C3
:10197000119801F009F9B22001F01EF9129801F056
:1019800003F9119801F000F9119801F0FDF8B32066
:1019900001F012F9129801F0F7F8119801F0F4F83B
:1019A000119801F0F1F8129801F0EEF8119801F099
:1019B000EBF8119801F0E8F8B42001F0FDF80320ED
:1019C000109001F0E1F8C0200F9001F0F5F8282008
:1019D0000E9001F0D9F8082001F0D6F804200D90FF
:1019E00001F0D2F8C12001F0E7F80F9801F0CCF82F
:1019F000C22001F0E1F80D200C9001F0C5F80020A4
:101A00000B9001F0C1F8C32001F0D6F88D200A90A8
:101A100001F0BAF82A20099001F0B6F8C42001F0CC
:101A2000CBF80A9801F0B0F8EE2001F0ADF8C5202F
:101A300001F0C2F81A2001F0A7F8362001F0BCF836
:101A4000702001F0A1F8E02001F0B6F80D9801F047
:101A50009BF8222001F098F8072001F095F80A2061
:101A600001F092F82E20089001F08EF8302001F05D
:101A70008BF82520079001F087F8099801F084F889
:101A80000E9801F081F82620069001F07DF8089864
:101A900001F07AF83A20059001F076F80B9801F001
:101AA00073F80120049001F06FF8109801F06CF8C1
:101AB0001320039001F068F8E12001F07DF80D9803
:101AC00001F062F8162001F05FF8062001F05CF8E2
:101AD0000C9801F059F82D20029001F055F8069865
:101AE00001F052F8232001F04FF82720019001F077
:101AF0004BF8019801F048F8079801F045F8029872
:101B000001F042F83B2001F03FF80B9801F03CF85F
:101B1000049801F039F80D9801F036F8039801F0B7
:101B200033F8059801F048F8129801F02DF82920B3
:101B300001F042F8FFF7DEFA16B080BD000400485D
:101B4000F0B59FB0269C259D249E1F461090104600
:101B50000F9008460E9010980D901EA80C901098AB
:101B60000B910C9908801DA80B9901801CA90A7083
:101B70001BAA13801AAA168019AA157018AB1C701C
:101B800014AB00241C701E9B11AD2B8013785B08D6
:101B900016AD2B702B78DE080A90701C0990072078
:101BA00003420998089207970691059604940395B5
:101BB000029001D105980290029808990A78424350
:101BC00012A802801C982038069A10700C9803887E
:101BD000039C25785D196D1E0A9E37880878381891
:101BE000401EAAB280B2019018463946019BFFF709
:101BF0001BFD13A804990180FFE713A8008812A910
:101C00000988884200DB9CE019A800780C280CD1D8
:101C1000FFE71CA800780C2141434D48401813A948
:101C20000988405C17A9087023E019A800781028DB
:101C30000BD1FFE71CA8007800014449081813A93C
:101C40000988405C17A9087012E019A800781828C4
:101C50000CD1FFE71CA80078302141433A484018D6
:101C600013A90988405C17A9087000E069E0FFE744
:101C7000FFE715A800210170FFE715A800780728E5
:101C800059DCFFE718A80078002826D1FFE717A83D
:101C9000007815A9097801228A40104205D0FFE793
:101CA0001BA8008800F058FF04E01AA8008800F084
:101CB00053FFFFE71498401C14A90870087816A970
:101CC0000978B0FBF1F25143401A002804D1FFE734
:101CD00014A8002101702EE027E017A8007815A9AC
:101CE000097801228A40104209D0FFE71BA8028828
:101CF0001DA801881EA80088FFF776FDFFE71E9843
:101D0000401C1EA90880088811A90988401A16A934
:101D10000978884208D1FFE711981EA908801D980C
:101D2000401C1DA9088006E0FFE7FFE71598401C4E
:101D300015A90870A1E7FFE71398401C13A90880B4
:101D40005BE71FB0F0BDC046526800086262000841
:101D5000EE5D0008F0B591B0189C179D169E1F46C9
:101D6000099010460890084607900998069010A818
:101D7000059009980491059908800FA90498088096
:101D80000E920DA90B800CA90E800BA90D700AA94B
:101D90000C700397FFE70E980078002857D0FFE7F4
:101DA0000BA800780C2814D1FFE70E9A0DA8038821
:101DB0000FA8018810A800880CAC24880BAD2D78E2
:101DC0000AAE36786F46BE607D603C6000F042F837
:101DD00033E00BA80078102814D1FFE70E9A0DA865
:101DE00003880FA8018810A800880CAC24880BADCC
:101DF0002D780AAE36786F46BE607D603C6000F09C
:101E000035F919E00BA80078182814D1FFE70E9ACD
:101E10000DA803880FA8018810A800880CAC24889E
:101E20000BAD2D780AAE36786F46BE607D603C60A3
:101E300000F028FAFFE7FFE7FFE70E98801C0E90FE
:101E40000BA800781099081810A90880A3E711B012
:101E5000F0BD0000F0B59FB0269C259D249E1F4636
:101E6000109010460F9008460E9010980D901EA8E6
:101E70000C9010980B910C9908801DA90B98088064
:101E80001C921BA90B801AA90E8019A90D7018AA03
:101E9000147017AA0023137016AA137015AA1370D2
:101EA00014AA138013AC238012AD2B801E9E11A8A0
:101EB00006800878C1084E1C0A90072009900A98ED
:101EC000089109990842079406950597049303928F
:101ED000029601D10898029002980A994143069807
:101EE00001800D21079A11800499039B1980FFE757
:101EF00014A8008813A90988884200DBB1E014A85F
:101F000000881A2141435848405C1C99097888424E
:101F100000D0A0E014A800881A214143524840187C
:101F200040781C994978884200D094E01EA8008827
:101F300019A909784218521E1DAB1B885918491E51
:101F400092B289B201911946019BFFF76DFB17A868
:101F500000210170FFE717A8007812A909888842BC
:101F600078DAFFE716A800210170FFE716A80078CD
:101F7000072869DCFFE718A8007800282ED1FFE7C2
:101F800014A800881A2141433748401817A9097836
:101F90004018807816A9097801228A40104205D09D
:101FA000FFE71BA8008800F0D7FD04E01AA800880E
:101FB00000F0D2FDFFE71598401C15A908700878BD
:101FC00019A90978B0FBF1F25143401A002804D155
:101FD000FFE715A80021017036E02FE014A8008863
:101FE0001A2141432048401817A9097840188078E1
:101FF00016A9097801228A40104209D0FFE71BA8E0
:1020000002881DA801881EA80088FFF7EDFBFFE7E6
:102010001E98401C1EA90880088811A90988401A2A
:1020200019A90978884208D1FFE711981EA90880EC
:102030001D98401C1DA9088006E0FFE7FFE71698E1
:10204000401C16A9087091E7FFE71798401C17A9D4
:10205000087080E7FFE7FFE71498401C14A9088088
:1020600046E71FB0F0BDC046C47A0008F0B59FB087
:10207000269C259D249E1F46109010460F900846D2
:102080000E9010980D901EA80C9010980B910C9922
:1020900008801DA90B9808801C921BA90B801AA907
:1020A0000E8019A90D7018AA147017AA00231370B6
:1020B00016AA137015AA137014AA138013AC2380E8
:1020C00012AD2B801E9E11A806800878C1084E1CF8
:1020D0000A90072009900A980891099908420794E4
:1020E0000695059704930392029601D108980290F1
:1020F00002980A994143069801800921079A1180A4
:102100000499039B1980FFE714A8008813A9098884
:10211000884200DBB1E014A80088222141435848DE
:10212000405C1C990978884200D0A0E014A800887F
:10213000222141435248401840781C9949788842EE
:1021400000D094E01EA8008819A909784218521EF0
:102150001DAB1B885918491E92B289B201911946CC
:10216000019BFFF761FA17A800210170FFE717A88C
:10217000007812A90988884278DAFFE716A80021BA
:102180000170FFE716A80078072869DCFFE718A8A8
:10219000007800282ED1FFE714A8008822214143AF
:1021A0003748401817A909784018807816A9097887
:1021B00001228A40104205D0FFE71BA8008800F0EA
:1021C000CBFC04E01AA8008800F0C6FCFFE71598D5
:1021D000401C15A90870087819A90978B0FBF1F21C
:1021E0005143401A002804D1FFE715A800210170CF
:1021F00036E02FE014A800882221414320484018EF
:1022000017A909784018807816A9097801228A4010
:10221000104209D0FFE71BA802881DA801881EA84C
:102220000088FFF7E1FAFFE71E98401C1EA908800E
:10223000088811A90988401A19A90978884208D183
:10224000FFE711981EA908801D98401C1DA9088051
:1022500006E0FFE7FFE71698401C16A9087091E713
:10226000FFE71798401C17A9087080E7FFE7FFE712
:102270001498401C14A9088046E71FB0F0BDC04662
:10228000167C0008F0B59FB0269C259D249E1F4615
:10229000109010460F9008460E9010980D901EA8B2
:1022A0000C9010980B910C9908801DA90B98088030
:1022B0001C921BA90B801AA90E8019A90D7018AACF
:1022C000147017AA0023137016AA137015AA13709E
:1022D00014AA138013AC238012AD2B801E9E11A86C
:1022E00006800878C1084E1C0A90072009900A98B9
:1022F000089109990842079406950597049303925B
:10230000029601D10898029002980A9941430698D2
:1023100001800521079A11800499039B1980FFE72A
:1023200014A8008813A90988884200DBB1E014A82A
:1023300000884A2141435848405C1C9909788842EA
:1023400000D0A0E014A800884A2141435248401818
:1023500040781C994978884200D094E01EA80088F3
:1023600019A909784218521E1DAB1B885918491E1D
:1023700092B289B201911946019BFFF755F917A84E
:1023800000210170FFE717A8007812A90988884288
:1023900078DAFFE716A800210170FFE716A8007899
:1023A000072869DCFFE718A8007800282ED1FFE78E
:1023B00014A800884A2141433748401817A90978D2
:1023C0004018807816A9097801228A40104205D069
:1023D000FFE71BA8008800F0BFFB04E01AA80088F4
:1023E00000F0BAFBFFE71598401C15A908700878A3
:1023F00019A90978B0FBF1F25143401A002804D121
:10240000FFE715A80021017036E02FE014A800882E
:102410004A2141432048401817A90978401880787C
:1024200016A9097801228A40104209D0FFE71BA8AB
:1024300002881DA801881EA80088FFF7D5F9FFE7CC
:102440001E98401C1EA90880088811A90988401AF6
:1024500019A90978884208D1FFE711981EA90880B8
:102460001D98401C1DA9088006E0FFE7FFE71698AD
:10247000401C16A9087091E7FFE71798401C17A9A0
:10248000087080E7FFE7FFE71498401C14A9088054
:1024900046E71FB0F0BDC046487D0008F0B597B0D4
:1024A0001E9C1D9D1C9E1F460F9010460E900846B8
:1024B0000D900F980C9016A80B900F980A910B99FD
:1024C000088015A90A980880149213A90B8012A9F4
:1024D0000E8011A90D7010A90C700997FFE71498D0
:1024E0000078002828D0FFE7149813A90B880278F9
:1024F00015A8018816A8048812AD2D8811AE37786A
:10250000089010A8007807906846069007980591F3
:10251000069988604F600D60204605990496FFF784
:102520000FFB049801784908169A5118089A1180EF
:102530001499491C1491D2E717B0F0BD10B5ACB096
:1025400001462B9000202A902990289027902690D1
:102550002590249023902B9A526922901046219125
:10256000FDF735FF9F4A23AB209018461F91114677
:10257000209A1F9C1E93234602F0A4FF6946229ACC
:102580008A6010234B6040F2E0730B6005216A23E0
:102590001D90084619461E9A229BFFF77FFF22983E
:1025A0002A90299028902790269025902490239077
:1025B0002B9908698C49FDF783FE002830D1FFE78D
:1025C0002B9800698849FDF72FFEFDF700FF884A28
:1025D00023AB1C9018461B9111461C9A1B9C1A9306
:1025E000234602F06FFF694600228A6010234B6089
:1025F00040F2E0730B6037216A23199008461946B0
:102600001A9B18921A46189BFFF748FF18982A90B1
:1026100029902890279026902590249023902CE0B4
:102620002B980069FDF7D3FE704A23AB179018462C
:1026300016911146179A169C1593234602F042FFF5
:10264000694600228A6010234B6040F2E0730B6001
:1026500037216A23149008461946159B13921A468F
:10266000139BFFF71BFF13982A902990289027901F
:102670002690259024902390FFE72B9880780128BE
:1026800010D1FFE768460021816010224260594A5C
:1026900002605A4A7620242312911946129BFFF7B2
:1026A00059FB0FE068460021816010224260514AC8
:1026B0000260514A7620242311911946119BFFF79D
:1026C00049FBFFE72B98808840F2E831884227DBFE
:1026D000FFE72B98808840F2E831B0FBF1F24949DE
:1026E00023A8109002F0EEFE694600228A601023B3
:1026F0004B60404B0B606E2148230F9008461946F3
:10270000109B0E921A460E9BFFF7C8FE0E982A9059
:10271000299028902790269025902490239022E0BD
:102720002B988288364923A80D9002F0CBFE69468B
:1027300000228A6010234B60FD4B0B606E21482302
:102740000C90084619460D9B0B921A460B9BFFF7FF
:10275000A5FE0B982A9029902890279026902590E6
:1027600024902390FFE72B98C088FDF7F1FD2B996B
:10277000C9680A900846FDF7F6FD0A9909900846CF
:102780000999FDF751FD2049FDF711FDFDF71FFEE9
:102790001E4A23AB0890184607911146089A079CD9
:1027A0000693234602F08EFE694600228A601023BB
:1027B0004B60DF4B0B606E216A230590084619467B
:1027C000069B04921A46049BFFF768FE04982A9021
:1027D00029902890279026902590249023902CB023
:1027E00010BDC0465C7A000800007A44647A000894
:1027F000747A0008E0FF0000B47A0008847A0008C8
:102800007D7A00086D7A00080000C8424B7A000803
:10281000B0B5A4B023A80021018022AA1180219183
:1028200020911F911E911D911C911B911A916A4636
:1028300091601023536040F2E0741460BA4A0A2495
:10284000199020461891189C17932346FFF782FA97
:10285000B6491AA8169002F035FE6946189A8A60A1
:10286000179B4B60B24C0C606E211590084614917A
:102870001146169A189B1394FFF710FE1898219092
:1028800020901F901E901D901C901B901A906946DE
:1028900088600C224A60A74B0B60A7491424A74DFF
:1028A000149812912146129C1192224610932B46A5
:1028B0000F95FFF74FFAA24816990E9008460E9909
:1028C00002F000FE6946189A8A60179B4B60139CC1
:1028D0000C602421149D0D902846169A189BFFF732
:1028E000DDFD1898219020901F901E901D901C9047
:1028F0001B901A9069468860119A4A60109B0B6081
:10290000904A382114980F9BFFF724FA16980E99D5
:1029100002F0D8FD6946189A8A60179B4B60139C99
:102920000C604821149D0C902846169A189BFFF7BE
:10293000B5FD1898219020901F901E901D901C901E
:102940001B901A908049169802F0BCFD6946189AAF
:102950008A60119B4B60109C0C605C21149D0B9055
:1029600028460A91169A0F9BFFF798FD1898219018
:1029700020901F901E901D901C901B901A906946ED
:102980008860119A4A60109B0B60704A76200A9901
:102990000F9BFFF7DFF916980E9902F093FD694639
:1029A000189A8A60179B4B60139C0C606A21149DD7
:1029B00009902846169A189BFFF770FD18982190E9
:1029C00020901F901E901D901C901B901A9069469D
:1029D0008860119A4A60109B0B605D4A05200A9935
:1029E0000F9BFFF7B7F9684618998160119A42600A
:1029F000109B0360574A37200A990F9BFFF7AAF9EB
:102A0000189819990880FFE723A8008880280CDC13
:102A1000FFE723A801886A20454AFEF7E5FEFFE7A5
:102A20002398801C23A90880EEE723A800210180B9
:102A3000FFE723A8008863280DDCFFE723A80088B0
:102A4000512140F2E072FEF7CFFEFFE72398401CD1
:102A500023A90880EDE723A81E210180FFE723A812
:102A6000008850280DDCFFE723A80188002040F2F1
:102A7000E072FEF7B9FEFFE72398401C23A9088007
:102A8000EDE723A800210180FFE723A8008809289B
:102A90001FDCFFE723980A210A464243901C80B2BC
:102AA000522240F2E0730891114607921A460693AB
:102AB000FEF79AFE239808994143C81C80B20799F3
:102AC000069AFEF791FEFFE72398401C23A9088091
:102AD000DBE723A800210180FFE723A8008809285D
:102AE0001FDCFFE723980A210A464243901C80B26C
:102AF000532240F2E0730591114604921A46039363
:102B0000FEF772FE239805994143C81C80B20499D0
:102B1000039AFEF769FEFFE72398401C23A908806B
:102B2000DBE724B0B0BDC046B97A0008557A00088A
:102B3000E0FF00000F780000897A0008FFFF000026
:102B4000447A0008AB7A0008427A00089B7A0008B1
:102B5000927A0008A27A000880B586B0014605AADC
:102B60001080394880230490039119460292019302
:102B700000F0D1FE02980088FEF79CFC04980199B1
:102B800000F0D5FE06B080BD80B586B0014605AA2E
:102B900010702D48802304900391194602920193EE
:102BA00000F0B9FE02980078FEF76EFC04980199D7
:102BB00000F0BDFE06B080BD80B586B0014605AA16
:102BC000107021484023049003911946029201930A
:102BD00000F0A1FE8020049900900846009900F0C2
:102BE0009AFE02980078FEF74FFC0498019900F0D5
:102BF0009EFE0498009900F09AFE06B080BDC04683
:102C000080B586B0014605AA10800F484023049085
:102C1000039119460292019300F07DFE80200499F1
:102C200000900846009900F076FE02980088FEF7B2
:102C300041FC0498019900F07AFE0498009900F094
:102C400076FE06B080BDC0460004004880B582B064
:102C50003248022102F0D7FA01285CD1FFE7304860
:102C6000008800280AD1FFE72C48002101F0B8FDB8
:102C70002D4908802A480121018047E02848008822
:102C8000012842D1FFE72548002101F0A9FD25498F
:102C90000880088824490988884208DDFFE7214820
:102CA000008821490988401A2149086009E01E4826
:102CB00000881E49081A1B49098840181C490860E9
:102CC000FFE71B480068FDF74EFB1A4901900846D4
:102CD0000199FDF7A9FA1849086008681749FDF736
:102CE000EFFA002805D1FFE713480068144908618E
:102CF000FFE70D48002101800D4801600E4801608A
:102D00000848018006480180FFE7FFE703480221E9
:102D100002F06CFAFFE702B080BDC046000400403C
:102D2000620200204207002040070020FFFF000051
:102D3000640200200050C347700200200000C84217
:102D40007802002082B0014601AA1070107840B2CB
:102D5000002800910EDBFFE701A8007840B21F2198
:102D600002460A4001219140C008034A1040034A2C
:102D70008150FFE702B07047FCFFFF1F00E100E059
:102D800070B584B00A46034603AC207002912078E7
:102D900040B200280193009218DBFFE703A80178F6
:102DA00049B20322D3431940184C0959007840B264
:102DB00005461540EA00FF259540A943029DAD0157
:102DC000EDB295402943184001511BE003A801785A
:102DD0000F22114008390323DC4321400A4D495991
:102DE000007840B206461E40F300FF269E40B143E5
:102DF000029EB601F6B29E40314310400838204092
:102E00004151FFE704B070BD1CED00E000E400E0BC
:102E1000E2480168082211430160FFE7DF480068CB
:102E20000821084201D0FFE7F8E7DC4801680422E6
:102E300011430160FFE7D94800680421084201D02E
:102E4000FFE7F8E77047C04610B585B00A4603466D
:102E500004AC207003912078012802930192009025
:102E600004D0FFE7009802280FD01DE0B6480168A3
:102E70000F22120591430160039909050D4BC918F2
:102E8000114002680A4302600FE00948016803220A
:102E900012059143016003990905064BC9181140B9
:102EA00002680A43026000E0FFE705B010BDC046BB
:102EB000382401400000F0FF82B0014601900198E3
:102EC0000028009107D0FFE7E148016840F60002C2
:102ED0001143016006E0DE48016840F600029143BC
:102EE0000160FFE702B07047D948016840F2001264
:102EF000114301607047C046D5480068012108426F
:102F000006D1FFE7D2480168012211430160FFE7C3
:102F10007047C04610B584B00A46034603AC207023
:102F200002A8017000780028019200931BD0FFE7EF
:102F300003A80078C007002807D0FFE7C44801684D
:102F40000122120511430160FFE703A80078800702
:102F5000002807D5FFE7BE48016848F20002114388
:102F60000160FFE71AE003A80078C007002807D037
:102F7000FFE7B74801680122120591430160FFE7AE
:102F800003A800788007002807D5FFE7B04801684C
:102F900048F2000291430160FFE7FFE704B010BD73
:102FA00010B585B00A46034604AC20700391207822
:102FB000012802930192009004D0FFE700980228B4
:102FC0000BD015E0A248016807225204914301602A
:102FD000039902680A4302600BE09D48016847F2CA
:102FE000000291430160039902680A43026000E015
:102FF000FFE705B010BDC04670B588B013460C465B
:10300000054607AE307006A8017005923078052895
:1030100002940195009318D8FFE74D480168049188
:1030200007A90A7805231C4654431F22A240049C8A
:103030009443049406AA127809784B439A40049961
:10304000114304910499016040E007A800780B281F
:103050001AD8FFE73D480168049107A90A780523BB
:103060001C4654431E3C1F22A240049C94430494DB
:1030700006AA127809784B431E3B9A4004991143E3
:1030800004910499016020E007A800780F281AD85D
:10309000FFE72D480168049107A90A7805231C461B
:1030A00054433C3C1F22A240049C9443049406AA2F
:1030B000127809784B433C3B9A40049911430491A0
:1030C0000499016000E0FFE7FFE7FFE706A800784A
:1030D000092817D8FFE720480168039106A90A7854
:1030E00003231C4654430722A240039C94430394A9
:1030F000059A09784B439A40039911430391039928
:1031000001601FE006A80078122819D8FFE71148CF
:103110000168039106A90A7803231C4654431E3C08
:103120000722A240039C94430394059A09784B43D9
:103130001E3B9A400399114303910399016000E0FB
:10314000FFE7FFE708B070BD2C24014030240140A8
:10315000342401400C2401401024014082B0014677
:1031600001AA10701078C0070028009107D0FFE76F
:10317000374801680122920511430160FFE701A869
:1031800000788007002807D5FFE731480168012251
:10319000520511430160FFE702B070470824014067
:1031A00084B00A460346039002A801700078002804
:1031B0000192009324D0FFE70398C005002807D5AB
:1031C000FFE72248016840F2001211430160FFE767
:1031D00003984005002807D5FFE71C48016840F226
:1031E000004211430160FFE703988007002806D5DD
:1031F000FFE717480168022211430160FFE723E05F
:103200000398C005002807D5FFE71048016840F281
:10321000001291430160FFE703984005002807D59D
:10322000FFE70A48016840F2004291430160FFE76E
:1032300003988007002806D5FFE7054801680222A9
:1032400091430160FFE7FFE704B0704704240140A9
:103250000824014080B584B0014603900398019191
:10326000FDF781F819490968FCF7A1FFFDF79BF804
:1032700017490860174800210160174801210160C3
:10328000FFE7154800680290FFE7002002A90978CF
:10329000C9070029009009D0FFE702A88078012122
:1032A00008400021091A48410090FFE70098C00734
:1032B0000028E6D1FFE70848016801229143016038
:1032C00004480021016004B080BDC04668020020AF
:1032D00014E000E018E000E010E000E010B582B07B
:1032E000014601AA1070107814224243B8481358BE
:1032F0000124A3431350009102B010BD10B582B059
:10330000014601AA1070107814224243B0481358A5
:10331000012423431350009102B010BD10B582B0B8
:10332000014601AA1070107814224243A84813588D
:10333000202423431350009102B010BD70B582B019
:10334000014601AA1070107814231C464443A0487B
:1033500025580126B543255014781D4665430024A1
:103360002C5010781D464543A3482C5010781D461C
:1033700045434D482C50107843434C481C5010781E
:1033800080000F2282405E4803681343036000916F
:1033900002B070BDB0B586B00A46034605AC2070D9
:1033A00004912078029301940092FFF797FF04980C
:1033B000006801990A7814231C4654433A4AA050E5
:1033C000049880680A781C465443384AA0500498F0
:1033D000008A0A781C465443874AA05008781A4647
:1033E00042437B4812580392039A43F60074A24367
:1033F0000392049A5468D5682C4352691443039A83
:1034000022430392039A0C7863431A500498007E77
:1034100001280AD1FFE705A80078142141436C4830
:103420000A5840231A430A5009E005A800781421DD
:10343000414367480A5840239A430A50FFE70498DB
:10344000407E01280AD1FFE705A8007814214143F6
:103450005F480A5880231A430A5009E005A80078FB
:10346000142141435A480A5880239A430A50FFE7DF
:103470000498807E00280AD1FFE705A8007814216F
:10348000414353480A5810239A430A5009E005A8BB
:103490000078142141434E480A5810231A430A5019
:1034A000FFE706B0B0BDC046100002401400024065
:1034B000B0B584B00A46034603AC2070029102986E
:1034C000217814244C4342496558054365500193C3
:1034D000009204B0B0BDC04610B584B00A460346A1
:1034E00003AC207002910298217889008840044939
:1034F0000C6804430C600193009204B010BDC046F8
:103500000400024010B588B00A46034606AC20709D
:1035100005910020049003900598022802920193DF
:10352000009008D0FFE70098042816D0FFE7009825
:10353000082824D035E025480068059906AA1378A4
:103540009B00994008400390107814214143204883
:10355000085802210840049024E01C48006805999E
:1035600006AA13789B009940084003901078142114
:1035700041431748085804210840049012E01348BA
:103580000068059906AA13789B00994008400390AB
:103590001078142141430E4808580821084004902F
:1035A00000E0FFE70398002808D0FFE70498002810
:1035B00004D0FFE707A80121017003E007A800215C
:1035C0000170FFE707A8007808B010BD00000240B6
:1035D0000800024010B584B00A46034603AC2070D0
:1035E000029102A80088217814244C4302496050BB
:1035F0000193009204B010BD0C000240B0B58AB037
:103600000A46034609AC207008A8018007A90024D7
:103610000C8006A90C8005A90C80008800B2312816
:103620000492039306DCFFE708A8008800B2002894
:1036300004DAFFE708A832210180FFE709A8007833
:103640000899401A06A908802E480078002811D051
:10365000FFE706A80188002040F2E0720290FEF722
:10366000C3F82948029901800698284A1080254805
:10367000017044E024480088401C07A9088008889D
:1036800063282CDCFFE72048204906AA138807AAF4
:103690001288098800886C4640F2E0752560FDF7C5
:1036A000FAFF05A81E210180FFE705A80088502821
:1036B0000EDCFFE70798401C05A9098880B20022AC
:1036C000FEF792F8FFE70598401C05A90880ECE793
:1036D00007980D49088006980C4908800EE006A856
:1036E0000188002040F2E0720190FEF77DF8064864
:1036F000019901800698054A1080FFE7FFE70AB0AC
:10370000B0BDC046040000207402002076020020F4
:1037100070B588B013460C460546079006A80170A0
:1037200005A90A700799324A16688E4316600799F0
:10373000304A16688E43166007992F4A16688E43E2
:10374000166007992D4A16688E4316600078002887
:10375000049403930295019004D0FFE70198012897
:1037600006D00BE0079822490A6802430A6006E087
:10377000079820490A6802430A6000E0FFE705A8AD
:103780000078032800902FD80098810001A28918A2
:103790008F46C04600F006B800F00FB800F018B829
:1037A00000F021B8079814490A6802430A60079894
:1037B00012490A6882430A6017E007980E490A68AE
:1037C00082430A6007980D490A6802430A600CE0C8
:1037D000079809490A6802430A60079807490A6876
:1037E00002430A6001E0FFE7FFE708B070BDC04692
:1037F0000004014004040140080401400C0401409D
:1038000082B00146019001980D4A1060009102B00B
:103810007047C04683B00146019009480068019A8C
:103820001042009104D0FFE702A80121017003E0DB
:1038300002A800210170FFE702A8007803B07047DA
:1038400014040140B0B589B013460C4605460890F3
:10385000079106920898006A04900898406A0390BD
:1038600005A800210180029301940095FFE705A8B7
:10387000008807281ED8FFE705A80088012181409D
:103880000698014210D0FFE705A8018889000F22A1
:103890008A400499914304910799008880008140EF
:1038A000049808430490FFE7FFE70598401C05A92A
:1038B0000880DCE705A808210180FFE705A800884B
:1038C0000F2820D8FFE705A800880121814006982D
:1038D000014212D0FFE705A80188890020390F2294
:1038E0008A4003999143039107990088800020380A
:1038F0008140039808430390FFE7FFE70598401CC9
:1039000005A90880DAE704980899086203980899DD
:10391000486209B0B0BD84B00A46034603900291E4
:103920000298039988620192009304B0704784B0B2
:103930000A46034603900291029803998861019216
:10394000009304B0704785B00A4603460390029185
:1039500003980069029908420192009304D0FFE79E
:1039600004A80121017003E004A800210170FFE711
:1039700004A8007805B07047F0B58BB01C4615461A
:103980000E4607460A900991089207930A98006824
:1039900005900A98C068049006A80021018003944D
:1039A000029501960097FFE706A800880F282CD8FB
:1039B000FFE706A8008801218140079801421ED038
:1039C000FFE706A801884900032213468B400599AA
:1039D00099430591099903885B009940059B0B4326
:1039E0000593018849008A400499914304910899FC
:1039F000008840008140049808430490FFE7FFE7F7
:103A00000698401C06A90880CEE705980A99086028
:103A100004980A99C8600BB0F0BDF0B58AB01C4696
:103A200015460E460746099008A8017007920693AE
:103A300000780128039502960194009706D1FFE7CC
:103A4000069809994A6802434A6005E00698099970
:103A50004A6882434A60FFE709988068049005A895
:103A600000210180FFE705A800880F281ED8FFE786
:103A700005A80088012181400698014210D0FFE787
:103A800005A80188490003228A40049991430491C2
:103A90000799008840008140049808430490FFE79C
:103AA000FFE70598401C05A90880DCE70498099900
:103AB00088600AB0F0BD000010B590B000200F90F3
:103AC0000EA908800D900C907F21C9050B910A90DA
:103AD000099008A908809F49079008460691FDF7BC
:103AE0002FFA00F045FEFDF7F5F9FDF711FF6846E6
:103AF00007990160A02280230846FDF793FEE1208C
:103B00004002FDF73FFBFCF769FFFDF7BDF80698A3
:103B1000C168481E0699C988FDF732FAFDF700F919
:103B2000FDF786F9FDF722F9FEF772FEFFE78948F7
:103B30000590FDF78BFB05980178012900D005E180
:103B400084480021017041610EA80180FFE70EA8A2
:103B5000008840F22B11884245DCFFE70EA801885F
:103B600004900846FDF76CF8FCF7F2FB7E49FCF781
:103B70001EFB8B21C905FCF757FB0990099803210F
:103B80008907FCF714FB7949FCF7B8FA04990A880D
:103B9000704B1C4618349200A05058690A88920055
:103BA000A158FCF79BFB002808D1FFE70EA800886E
:103BB00080006849081880694861FFE765484069E6
:103BC000FCF705FC644A654BFCF7ACFB002804D10C
:103BD000FFE7604800210161FFE7FFE70E98401C06
:103BE0000EA90880B3E7002040F22C110390FFF7E4
:103BF000F1FC0398FFF782FB0EA803990180FFE711
:103C00000EA80088C7282FDCFFE70EA800888000D8
:103C10005049081880690B99FCF760FB00281DD1FA
:103C2000FFE7FFE70EA80088C72816DCFFE70EA80D
:103C3000008880004749081880690B99FCF732FB1F
:103C4000002804D1FFE70E9808A9088005E0FFE7E7
:103C50000E98401C0EA90880E4E705E0FFE70E98E7
:103C6000401C0EA90880CBE73A484069FCF7AFFB3F
:103C7000394A3A4BFCF740FB00280DD1FFE73548A5
:103C8000406901218907FCF7CFFA0D900D9934485E
:103C9000FCF7CAFA0A90FFE708980EA90880FFE728
:103CA0000EA8008808A90988643188424DDAFFE728
:103CB00028484078042813D1FFE7264800214170A6
:103CC000FFE724484078042804D1FFE72148002179
:103CD000417004E0FFE701200028F2D1FFE7FFE791
:103CE0000EA8008880001B49081880690C900C9869
:103CF0000D99FCF7E5FA00280CD1FFE70C990D9817
:103D0000FCF74DFA0A99FCF752FA1649FCF7F6F956
:103D10000C900BE00D980C99FCF741FA0A99FCF70E
:103D200046FA1049FCF7EAF90C90FFE70C98FCF70B
:103D300021FB5021029008460299FFF75FFCFFE744
:103D40000E98401C0EA90880AAE7FFE70148FEF77D
:103D5000F5FBECE678020020333333333333D33FC3
:103D6000000034410000F041333353400000A040D4
:103D700010B586B00A46034605AC207004A8017051
:103D80000178207840B2039302940192FEF7F8FF85
:103D90000298017848B2FEF7D5FF06B010BD0000CA
:103DA00010B584B00A460346039002910398029925
:103DB000054C2140084305490860BFF34F8F01922D
:103DC000009304B010BDC04680FFFF1F08ED00E067
:103DD00010B583B0014602AA10705E4803684CF229
:103DE0000004A34303605C4803685C4C2340036009
:103DF000107809280191009000D9A7E0009881006F
:103E000001A289188F46C04600F012B800F01CB815
:103E100000F026B800F02EB800F03BB800F046B82D
:103E200000F056B800F061B800F071B800F07CB84E
:103E3000494801680122120491430160016840F27F
:103E400000129143016082E043480168012212049C
:103E500011430160016840F200129143016076E075
:103E6000F44801680160FA48016840F20012114309
:103E700001606CE0EF4801680160F54801680122CB
:103E8000D20711430160016840F200121143016042
:103E90005DE0E848016844F2000211430160EC482B
:103EA000016840F200121143016050E0E1480168EE
:103EB00044F2000211430160E54801680122D20783
:103EC00011430160016840F20012114301603EE0BD
:103ED000D848016848F2000211430160DC480168DB
:103EE00040F200121143016031E0D248016848F20B
:103EF000000211430160D64801680122D207114334
:103F00000160016840F20012114301601FE0C948DE
:103F100001684CF2000211430160CD48016840F293
:103F200000121143016012E0C24801684CF2000225
:103F300011430160C64801680122D20711430160A4
:103F4000016840F200121143016000E0FFE703B096
:103F500010BDC0460410024030100240FFFEFE7F3C
:103F600095B0014614AA1070002013901290119081
:103F700010900F900E900D900C900B900A9009905D
:103F800008900790069005900490AA4800680C22BB
:103F9000104080081390139800280391029008D0D5
:103FA000FFE70298012807D0FFE70298022806D011
:103FB00045E0A3480F9045E0A1480F9042E09D489E
:103FC00001680F2292041140890C099100680121B7
:103FD000C9060840C00E08900898012804D1FFE7E0
:103FE0000998113009900BE009980F2803D1FFE7D9
:103FF0001020099003E00998801C0990FFE7FFE773
:104000008C480068012109040840000C07900798BB
:1040100000280ED0FFE7894800680F210840401CA7
:10402000069006988649B1FBF0F0099941430F913B
:1040300004E00998804941430F91FFE702E080487E
:104040000F90FFE77B480168F022114009090591B4
:1040500005997C4A515C04910F99049AD1400E91C4
:10406000016840F200721140090A05910599764AEB
:10407000515C04910E99049AD1400D91006843F669
:1040800000010840C00A059005987049085C04903A
:104090000E980499C8400C9014A800780528019047
:1040A00000D9C3E00198810001A289188F46C0465B
:1040B00000F00AB800F00BB800F00CB800F00DB832
:1040C00000F00EB800F083B80F981090AFE00E9893
:1040D0001090ACE00D981090A9E00C981090A6E01C
:1040E0005B48006840F20011084088420FD0FFE7AB
:1040F00057480068012109040840884203D0FFE7BF
:1041000055480B9002E053480B90FFE75CE04948AC
:1041100000684CF200010840800B12904C48006887
:10412000C00F11901298032800904BD8009881007E
:1041300001A289188F46C04600F006B800F013B8F7
:1041400000F020B800F02FB81198002804D1FFE744
:104150000C9840080B9005E00E980321B0FBF1F09D
:104160000B90FFE72FE01198002804D1FFE70C988F
:1041700080080B9005E00E980521B0FBF1F00B9044
:10418000FFE720E01198002806D1FFE70C980621F0
:10419000B0FBF1F00B9005E00E980721B0FBF1F0B9
:1041A0000B90FFE70FE01198002804D1FFE70C986F
:1041B000C0080B9005E00E980921B0FBF1F00B90C0
:1041C000FFE700E0FFE7FFE70B9810902FE02048A3
:1041D00000680321084203D1FFE70C980A9022E00F
:1041E0001B48006803210840012803D1FFE70F980E
:1041F0000A9017E01648006803210840022804D1FD
:10420000FFE748F200000A900BE011480068032124
:104210000840032803D1FFE709480A9000E0FFE7C0
:10422000FFE7FFE7FFE70A98109000E0FFE710982C
:1042300015B070470410024000093D002C100240E8
:1042400000127A00227A0008327A00083A7A0008CE
:1042500030100240003FAB01809FD50010B582B006
:10426000014601AA108010881F2203461340012234
:104270009A408009174BC4581443C450009102B0AF
:1042800010BDC04610B582B0014601AA108010884A
:104290001F220346134001229A4080090D4BC45847
:1042A0009443C450009102B010BDC04610B582B016
:1042B000014601AA108010881F22034613400122E4
:1042C0009A408009034BC4581443C450009102B073
:1042D00010BDC0460010024082B001460190019816
:1042E000026840231A430260009102B07047000048
:1042F00086B00A460346059004A8018005989849AF
:1043000088420192009305D1FFE704A8008805992F
:10431000C86016E00598406841F20001084002902C
:104320000298002807D0FFE705980C300390049806
:104330000399087004E004A800880599C860FFE7A5
:10434000FFE706B07047C04680B586B001460590CD
:104350000598334A9042049103900ED0FFE78048BD
:104360000399814211D1FFE740F20C300290FFF730
:104370009DFF0298FFF786FF08E005480190FFF7D0
:1043800095FF0198FFF77EFF00E0FFE706B080BDD4
:104390000E04000085B00A4603460390029103987C
:1043A0008068029908420192009304D0FFE704A8B4
:1043B000012101702FE003981949884227D1FFE7B6
:1043C000029800280FD1FFE70398806841F60001AA
:1043D000084204D0FFE704A8002101701BE004A8F4
:1043E0000121017017E0029800280FD1FFE7039820
:1043F000806840F20061084204D0FFE704A8002171
:10440000017008E004A80121017004E0FFE704A89E
:1044100000210170FFE704A8007805B07047C0468E
:104420000038004088B00A460346069005910020F7
:10443000049003900290069800680490049843F258
:10444000400108400490069800680390039843F6E2
:1044500040010840039006984068029002983F4946
:104460000840029006983E498842019200933DD14F
:10447000FFE7059800680499014304910598406896
:104480000499014304910598C0680499014304917B
:1044900005980069049901430491059840690499BD
:1044A000014304910598806904990143049105989A
:1044B000806840F2007188420BD0FFE70598806861
:1044C00040F60071884204D0FFE707A80021017080
:1044D00040E00598806840F60001084004990143D7
:1044E0000491FFE704980699086029E005980068A0
:1044F000039901430391059840680399014303918F
:104500000598C068039901430391059800690399D0
:10451000014303910598406903990143039105986C
:1045200080690399014303910398069908600598EF
:104530008068029901430291029806994860FFE75A
:104540000698C16940F600029143C16107A80121A4
:104550000170FFE707A8007808B07047FFF000007F
:104560000030014082B001460190019800220260B3
:1045700001984260019840F2007383600198C26024
:10458000019802610198426101988261009102B034
:104590007047000070B587B00A46034606AC20702D
:1045A00005A8017001780325294089000F268E4057
:1045B000F1430491217804782C40A400A140039198
:1045C00000788008032802920193009034D8009864
:1045D000810001A289188F4600F006B800F00EB8DD
:1045E00000F016B800F01EB8049818490A68024096
:1045F0000A6003980A6802430A601EE004981249A0
:104600000A6802400A6003980A6802430A6014E0DC
:1046100004980C490A6802400A6003980A68024339
:104620000A600AE0049806490A6802400A60039892
:104630000A6802430A6000E0FFE707B070BDC046A9
:1046400014000140100001400C000140080001402E
:1046500083B00020029001903248016801221204C8
:1046600011430160FFE70298401C02902D4800684A
:104670000121490408400190FFE70198002100282A
:10468000009107D1FFE7029827494018411E884151
:104690000090FFE70098C0070028E4D1FFE7214819
:1046A000006801214904084202D1FFE7FFE7FEE765
:1046B0001E480168072291430222114301601C48F1
:1046C0000168016001680160016801600168194AC0
:1046D0001140016001681D2212041143016011485C
:1046E00001680122120611430160FFE70D480068CE
:1046F00001214906084201D1FFE7F7E70C480168AC
:104700000322914301600168022211430160FFE727
:10471000074800680C210840082801D0FFE7F7E7A8
:1047200003B07047001002400100FFFF002002406C
:1047300004100240FFFFC27780B5FFF789FF80BDFC
:1047400082B00146019001980428009106D1FFE74C
:104750000648016804221143016005E0034801682E
:10476000042291430160FFE702B0704710E000E0CF
:1047700080B50420C043FFF7E3FF08480068FBF75B
:10478000F2FD0749FBF750FD064908600868064935
:10479000FBF70DFD0549086080BDC0460000002004
:1047A0000024F44A6C02002000007A4468020020D1
:1047B00082B0014601900198026880231A4302608A
:1047C000009102B0704784B00A460346039002A8E5
:1047D000018000880399C8620192009304B0704779
:1047E00086B00A460346059004A801800021039183
:1047F000008803280292019300901DD80098810040
:1048000001A289188F46C04600F006B800F008B82B
:1048100000F00AB800F00CB80598406B03900CE06B
:104820000598806B039008E00598C06B039004E046
:104830000598006C039000E0FFE7039806B070470E
:10484000B0B587B013460C460546069005A8018012
:1048500004A90A800088032803940293019500901C
:1048600040D80098810001A289188F4600F006B850
:1048700000F010B800F01CB800F026B80698816966
:104880000C229143816104A8008806998A69024339
:104890008A6128E00698816940F60042914381616F
:1048A00004A80088000206998A6902438A611AE016
:1048B0000698C1690C229143C16104A80088069939
:1048C000CA690243CA610EE00698C16940F6004217
:1048D0009143C16104A8008800020699CA69024395
:1048E000CA6100E0FFE707B0B0BD82B001460190A9
:1048F0000198002202800198012343800198828060
:104900000198C280009102B070470000B0B587B036
:1049100013460C460546069005A8018004920088BF
:104920000328039402930195009000D963E1009855
:10493000810001A289188F4600F006B800F063B824
:1049400000F0CBB800F023B90698016A0122914328
:10495000016206988169032291438161049800886D
:1049600006990A6A02430A620698016A0222914382
:1049700001620498808806990A6A02430A620698CE
:104980009E4988420FD0FFE706989D4988420AD089
:10499000FFE706989B49884205D0FFE706989A49A9
:1049A00088422FD1FFE70698016A042291430162F1
:1049B0000498408806990A6A02430A620698016AC6
:1049C0000822914301620498C08806990A6A02434A
:1049D0000A620698416840F20012914341600498CF
:1049E000008906994A6802434A600698416840F285
:1049F0000022914341600498408906994A68024325
:104A00004A60FFE7F8E00698016A102291430162CC
:104A10000698816940F200329143816104980088D0
:104A2000000106990A6A02430A620698016A202276
:104A30009143016204988088000106990A6A024342
:104A40000A6206986D49884233D1FFE70698016AE9
:104A500040229143016204984088000106990A6A45
:104A600002430A620698016A802291430162049817
:104A7000C088000106990A6A02430A6206984168E2
:104A800040F20042914341600498008980000699F9
:104A90004A6802434A600698416840F60002914322
:104AA000416004984089800006994A6802434A6040
:104AB000FFE70698524988420ED1FFE70698416801
:104AC00040F20042914341600498008980000699B9
:104AD0004A6802434A60FFE78EE00698016A40F2A6
:104AE0000012914301620698C16903229143C1619A
:104AF00004980088000206990A6A02430A6206982E
:104B0000016A40F200229143016204988088000209
:104B100006990A6A02430A620698E849884235D132
:104B2000FFE70698016A40F200429143016204984F
:104B30004088000206990A6A02430A620698016ADE
:104B400040F60002914301620498C0880002069971
:104B50000A6A02430A620698416841F200029143E0
:104B6000416004980089000106994A6802434A603E
:104B70000698416842F200029143416004984089DE
:104B8000000106994A6802434A60FFE734E006984C
:104B9000016A41F20002914301620698C16940F244
:104BA00000329143C16104980088000306990A6AA3
:104BB00002430A620698016A42F2000291430162CE
:104BC00004988088000306990A6A02430A620698DC
:104BD000BA4988420ED1FFE70698416844F20002C4
:104BE0009143416004980089800106994A68024314
:104BF0004A60FFE700E0FFE707B0B0BD002C0140CE
:104C0000004001400044014000480140B0B587B079
:104C100013460C460546069005A8018004A90A80A3
:104C200000880328039402930195009040D80098CF
:104C3000810001A289188F4600F006B800F010B874
:104C400000F01CB800F026B80698816970229143E4
:104C5000816104A8008806998A6902438A6128E074
:104C60000698816947F200029143816104A8008897
:104C7000000206998A6902438A611AE00698C169AE
:104C800070229143C16104A800880699CA69024351
:104C9000CA610EE00698C16947F200029143C16102
:104CA00004A8008800020699CA690243CA6100E0AC
:104CB000FFE707B0B0BD0000B0B587B013460C46A3
:104CC0000546069005A801800492008803280394F5
:104CD0000293019500901DD80098810001A28918C7
:104CE0008F46C04600F006B800F008B800F00AB8D9
:104CF00000F00CB80498069948630CE004980699F3
:104D0000886308E004980699C86304E0049806994B
:104D1000086400E0FFE707B0B0BD0000B0B587B0A1
:104D200013460C460546069005A8018004A90A8092
:104D300000880328039402930195009040D80098BE
:104D4000810001A289188F4600F006B800F010B863
:104D500000F01CB800F026B806988169082291433B
:104D6000816104A8008806998A6902438A6128E063
:104D70000698816940F600029143816104A8008889
:104D8000000206998A6902438A611AE00698C1699D
:104D900008229143C16104A800880699CA690243A8
:104DA000CA610EE00698C16940F600029143C161F4
:104DB00004A8008800020699CA690243CA6100E09B
:104DC000FFE707B0B0BD82B0014601900198002214
:104DD000028001984280019882800198C2800198E7
:104DE000028101984281009102B0704780B58AB07B
:104DF0000146099009987E4A90420891079026D072
:104E0000FFE72D480799814229D0FFE779480799A4
:104E100081422CD0FFE77548079981420FD0FFE708
:104E20007548079981422BD0FFE774480799814262
:104E30002FD0FFE772480799814232D039E02448E9
:104E40000690FFF733FA0698FFF71CFA32E01F4886
:104E50000590FFF72BFA0598FFF714FA2AE01A4895
:104E60000490FFF723FA0498FFF70CFA22E040F2CF
:104E700008400390FFF71AFA0398FFF703FA19E0C6
:104E800040F210300290FFF711FA0298FFF7FAF99A
:104E900010E00C480190FFF709FA0198FFF7F2F9CA
:104EA00008E007480090FFF701FA0098FFF7EAF9D9
:104EB00000E0FFE70AB080BD00100040002C014078
:104EC00012030000110300000404000001040000AC
:104ED0000B03000082B00146019001980268012393
:104EE0009A430260009102B0704782B0014601907F
:104EF0000198026801231A430260009102B07047D2
:104F000084B00A46034603900291029800880399F0
:104F100088620398354988420192009305D0FFE7E3
:104F200003983349884212D1FFE703980168702241
:104F3000914301600298408803990A6802430A601D
:104F40000298808803990A6802430A60FFE7029882
:104F500080680399C86203982449884219D0FFE702
:104F600003982349884214D0FFE7039821498842D7
:104F70000FD0FFE70398204988420AD0FFE7039843
:104F80001E49884205D0FFE703981D4988420DD18C
:104F9000FFE70398016840F20032914301600298F4
:104FA000C08803990A6802430A60FFE703980F4923
:104FB00088420FD0FFE703980F4988420AD0FFE7E5
:104FC00003980E49884205D0FFE703980C498842B0
:104FD00005D1FFE70298007B03990863FFE7039878
:104FE000416901221143416104B07047002C014026
:104FF0000004004000200040004001400044014007
:1050000000480140B0B588B013460C4605460790ED
:1050100006A8018005920088032804940393029552
:10502000019000D9C9E00198810001A289188F463A
:1050300000F006B800F030B800F05EB800F08BB8B1
:105040000798016A0122914301620798016A0A23C5
:10505000994301620598008807990B6A03430B6224
:1050600007988169032399438161059840880799CE
:105070008B6903438B6107988169F02399438161B0
:105080000598C088000107998B6903438B610798D5
:10509000016A1143016291E00798016A102291436D
:1050A00001620798016AA02399430162059800886C
:1050B000000107990B6A03430B620798816940F26C
:1050C00000339943816105984088000207998B69F4
:1050D00003438B61079881694FF200039943816113
:1050E0000598C088000307998B6903438B61079873
:1050F000016A1143016261E00798016A40F20012FF
:10510000914301620798016A40F6002399430162C6
:1051100005980088000207990B6A03430B62079801
:10512000C16903239943C161059840880799CB69F8
:105130000343CB610798C169F0239943C161059886
:10514000C08800010799CB690343CB610798016AC6
:105150001143016232E00798016A41F20002914373
:1051600001620798016A4AF20003994301620598B7
:105170000088000307990B6A03430B620798C16913
:1051800040F200339943C1610598408800020799B5
:10519000CB690343CB610798C1694FF20003994380
:1051A000C1610598C08800030799CB690343CB61AF
:1051B0000798016A1143016200E0FFE7079805992B
:1051C0008A8806A90988FFF73BFB08B0B0BD10B577
:1051D00084B00A4603460390029102980399CC6872
:1051E0000443CC600192009304B010BD84B00A4621
:1051F0000346039002910298C0430399086101920B
:10520000009304B0704786B00A46034604900391A9
:105210000498C068039908400290049800690399B3
:1052200008420192009308D0FFE70298002804D0BA
:10523000FFE705A80121017003E005A80021017026
:10524000FFE705A8007806B0704784B00A46034619
:10525000039002A80170007801280192009307D101
:10526000FFE70398416C48F200021143416406E0F5
:105270000398416C48F2000291434164FFE704B097
:105280007047000082B00146019001980022028020
:1052900001984280019882800198044B83600198B4
:1052A000C28001980273009102B07047FFFF0000B6
:1052B00080B58AB00A4603460990089100200790FD
:1052C0000690059004900998394988420392029308
:1052D00001900AD0FFE73748019981420AD1FFE7E0
:1052E0000520FEF73DFE079005E00220FEF738FEA0
:1052F000079000E0FFE70998006848F200010842C3
:1053000018D0FFE70798400008994A088018B0FBBA
:10531000F1F004900498134908400690049840085E
:1053200007210840059006980599084380B209991D
:10533000C86015E0079808994A088018B0FBF1F09A
:105340000490049807490840069004980F210840EB
:10535000059006980599084380B20999C860FFE74F
:105360000AB080BDF0FF000080B586B00146059010
:1053700005980F4A9042049103900DD0FFE70D4825
:105380000399814210D1FFE70C480290FEF78EFF8F
:105390000298FEF777FF08E007480190FEF786FFC6
:1053A0000198FEF76FFF00E0FFE706B080BDC04642
:1053B0000044004000380140110400000E030000CA
:1053C00082B0014601900198026801231A430260ED
:1053D000009102B0704710B584B00A4603460390AE
:1053E0000291039801680124A143016003980168B8
:1053F00040F20064A1430160029803990C680443E1
:105400000C600192009304B010BD10B584B00A4640
:10541000034603900291039801680424A1430160AC
:10542000029803990C6804430C600192009304B045
:1054300010BD10B584B00A4603460390029103984C
:1054400001680124A14301600398416843F200040C
:10545000A1434160029803994C6804434C60019257
:10546000009304B010BD10B584B00A460346039003
:105470000291039801680824A143016002980399EE
:105480000C6804430C600192009304B010BD10B589
:1054900084B00A46034603900291039801680124F0
:1054A000A14301600398016841F20004A143016037
:1054B000029803990C6804430C600192009304B0B5
:1054C00010BD00000FB410B504A9074B02AA039841
:1054D00000F0ECF8044602A9002000F083FC20460E
:1054E00010BC08BC04B01847E55D00082021020C80
:1054F00001D010211046020A01D0104608390209D5
:1055000001D01046091F820801D01046891E4208AA
:1055100001D0881E7047081A704702E008C8121FA1
:1055200008C1002AFAD170477047002001E001C18C
:10553000121F002AFBD17047F0B51FB486B009983E
:10554000089A030D0021024314D05148514A1818FB
:10555000504305141198012810981AD0281A401C9D
:1055600000264D4F4D49009601910490002812DA13
:10557000444211E01198012449A3012801D1109857
:10558000C1430698119A84600360C26041600BB009
:10559000F0BD4042E4E70446210500203F4A001CDC
:1055A00051410391029012E0E00707D032463B469A
:1055B00001990098FBF758F80191009032463B465C
:1055C00010461946FBF750F806460F466410002CAB
:1055D000EAD10498039B0028029A0999089806DAF0
:1055E000FBF742F8019B009AFBF73EF805E0FBF75A
:1055F000A3F8019B009AFBF79FF804460E46002291
:10560000284BFBF731F903D80020C043014607E0DF
:105610000022254B20463146FAF774FFFBF704F9C8
:10562000102409E0002C0ADB0A220023FAF7F9FE15
:10563000079B30321A55641E02460A43F2D11122EA
:10564000641C079B121B1C19119B012B03D0012307
:1056500008430ED10AE0084304D011201090002026
:10566000119077E71098151A6D1E0BE01098824282
:1056700002DD00236D1C03E0824201DA00236D1E6F
:10568000002BEED0069811998260C16030C07EE791
:1056900001FCFFFF104D0000000014400000F03F2F
:1056A000300000000000F0430000E03FFFB597B07D
:1056B0000646002518E2252877D100242746FD4913
:1056C000049400E00443761C32780120203A904094
:1056D0000842F7D130782A280ED0022230780146CD
:1056E0003039092916D804990A235943303940180A
:1056F0001443761C0490F1E7189802C8049118909E
:10570000002904DA012040030443484204900220A7
:105710000443761C30782E2814D10420044370787A
:10572000761C2A2809D11898761C80C8189009E0A0
:105730000A214F43303FC719761C30780146303973
:105740000929F5D930786C2810D006DC4C281AD0FD
:1057500068280ED06A2817D104E0742813D07A285C
:1057600012D110E00120400504430CE0012109059D
:1057700001E0032109050C437178814203D1012026
:1057800000052418761C761C3078119066280BD002
:1057900013DC58287DD009DC00287BD04528F6D0C2
:1057A0004628F4D047281AD1A5E118E0632835D05F
:1057B000642870D0652812D19DE170286CD008DC77
:1057C0006728F1D069287BD06E280DD06F2806D1CC
:1057D000BAE073282ED0752871D0782859D01A9A3B
:1057E000199990476D1C7EE16002400F022809D094
:1057F00003280DD00428189801680DD00D60001DF5
:10580000189070E11898EA1701680D604A60F6E791
:10581000189801680D80F2E70D70F0E718986A4655
:1058200001781172001D18900020507202A800909B
:10583000012005E0189802C8189000200091C0438C
:1058400061070DD5002101E00199491C0191B94280
:1058500012DA8142F8DB009A515C0029F4D10BE0A6
:10586000002101E00199491C01918142FADB019A72
:105870000099895C0029F5D1019904981A9B471A6F
:1058800021463846199A00F097FA019940194518AF
:105890000BE04FE02CE113E04EE000980099007817
:1058A000491C00911A9A199990470198401E01903D
:1058B000401CF2D1214638461A9B199A10E137E074
:1058C0000A200021009001916002410F022907D0B7
:1058D000189A01CA1892C2179446032908D00AE000
:1058E0001898C01DC108C90005C91891944607E061
:1058F00000B2C2179446042902D140B2C1178C46A7
:1059000000226146944506DA0A4600214042914150
:105910008C462D2102E0210504D52B216A46117306
:10592000012103E0E10701D02021F7E7029155E0D2
:105930000A200AE0102008E0102000900021042036
:1059400004430191082703E0082000210191009001
:105950006002410F022907D0189A01CA189200224A
:105960009446032908D008E01898C01DC108C90052
:1059700005C91891944603E080B2042900D1C0B251
:1059800000210291210729D51199702906D0009A8A
:105990001021019B4A401A4305D00EE040216A467F
:1059A0001173012108E06146014306D030216A46A7
:1059B00011731199517302210291009A0821019BE0
:1059C0004A401A430AD16146014301D1610705D516
:1059D00030216A46117301217F1E029111995829C5
:1059E00004D035A10E910DA90D910DE037A1F9E775
:1059F0006146019B009AFAF714FD0E9B8C469B5C56
:105A00000D9A521E0D92137061460143F0D10D980C
:105A100005A9081A20300190600703D50120000471
:105A2000844300E001270198874201DD381A00E035
:105A30000020019900904118029809180498401A12
:105A40000490E00306D421461A9B199A049800F0AA
:105A5000B3F94519002706E003A81A9AC05D199901
:105A600090476D1C7F1C02988742F5DBE0030CD544
:105A700021461A9B199A049800F09EF9451904E0F2
:105A80001A9A3020199990476D1C0099481E009071
:105A90000029F5DC08E00D980D990078491C0D915E
:105AA0001A9A199990476D1C0199481E0190002976
:105AB000F1DC63E109280100303132333435363707
:105AC000383961626364656600000000303132334A
:105AD00034353637383941424344454600000000EA
